:020000040800F2
:1000000088060020BD010008EB0E0008210500084D
:10001000E90E0008C5020008ED0F0008000000000E
:10002000000000000000000000000000210F000898
:10003000C7020008000000001F0F0008230F00087F
:10004000D7010008D7010008D7010008D701000830
:10005000D7010008D7010008C902000809030008F9
:100060003D030008B5030008D7010008D7010008C8
:10007000D7010008D7010008D7010008D701000800
:10008000D7010008D7010008D701000800000000D0
:10009000000000000000000000000000D701000880
:1000A000D7010008D7010008D7010008C50F0008D4
:1000B000D7010008D7010008D7010008D7010008C0
:1000C000D7010008D7010008D7010008D7010008B0
:1000D000D7010008D7010008D7010008D7010008A0
:1000E000D7010008D7010008D70100080000000070
:1000F0000000000000000000000000000000000000
:1001000000000000000000000000000000000000EF
:100110000000000000000000D7010008D70100081F
:1001200000F002F800F03AF80AA090E8000C8244CF
:100130008344AAF10107DA4501D100F02FF8AFF2AC
:10014000090EBAE80F0013F0010F18BFFB1A43F0B5
:1001500001031847F80F000018100000103A24BFE0
:1001600078C878C1FAD8520724BF30C830C144BF1C
:1001700004680C607047000000230024002500265E
:10018000103A28BF78C1FBD8520728BF30C148BFFA
:100190000B6070471FB51FBD10B510BD00F05DF8B6
:1001A0001146FFF7F7FF00F075FF00F07BF803B48E
:1001B000FFF7F2FF03BC00F07FF80000094880471A
:1001C00009480047FEE7FEE7FEE7FEE7FEE7FEE739
:1001D000FEE7FEE7FEE7FEE704480549054A064B51
:1001E00070470000C10F00082101000888000020AE
:1001F0008806002088020020880200204FF00002BC
:1002000000B5134694469646203922BFA0E80C500C
:10021000A0E80C50B1F12001BFF4F7AF090728BFE7
:10022000A0E80C5048BF0CC05DF804EB890028BF63
:1002300040F8042B08BF704748BF20F8022B11F08C
:10024000804F18BF00F8012B704770477047704708
:10025000004870472800002070477546FFF7F8FFF8
:10026000AE4605006946534620F00700854618B0A3
:1002700020B5FFF7B1FFBDE820404FF000064FF07A
:1002800000074FF000084FF0000B21F00701AC46CB
:10029000ACE8C009ACE8C009ACE8C009ACE8C009EA
:1002A0008D46704710B50446AFF300802046BDE888
:1002B0001040FFF77CBF000001491820ABBEFEE7ED
:1002C00026000200FEE7704710B572B60B48C16801
:1002D00041F48071C160C16841F40071C160C168BE
:1002E00021F48061C16006490120087000F082F9A4
:1002F000002802D003490120086010BD0010014011
:100300000000002014040140094810B50068C0F343
:1003100007210848FF29018001D1FD210180022029
:1003200000F068F9002802D003490220086010BDDF
:10033000080C01400400002014040140194810B5C5
:10034000006841074FF0804017D517490988C162FE
:10035000164AFF2312884A4392FBF3F2891A8163FB
:10036000416941F001014161016A41F010010162FE
:10037000016841F0010101600BE0016821F0010119
:100380000160016A21F010010162416941F001013F
:100390004161042000F02EF9002802D00449042015
:1003A000086010BD08080140020000200400002081
:1003B0001404014010B572B60A48006801070A48E3
:1003C000C16802D541F4806101E021F48061C1601F
:1003D000082000F00FF910B104490820086062B647
:1003E00010BD000008080140001001401404014045
:1003F000024881680278114481607047180000202B
:1004000010B5032000F066F8002000F005F800F0B9
:1004100023F8002010BD000070B50D4D04464FF4C8
:100420007A712878B1FBF0F00A490968B1FBF0F065
:1004300000F062F848B9102C07D200222146501E65
:1004400000F028F800206C6070BD012070BD000035
:1004500018000020240000200C4808B5816941F0F4
:1004600001018161816901F001010091C16941F0DF
:100470008051C161C06900F080500090044841681B
:1004800021F0E06141F00071416008BD00100240C0
:1004900000000140F0B40E4B1B680C46C3F302236E
:1004A000C3F10705042D00D90425191D072901D220
:1004B000002300E0DB1E012606FA05F1491E21405B
:1004C00099409E40761E16403143F0BC00F0D2BDEC
:1004D0000CED00E0064900F0070208684FF6FF0344
:1004E000184040EA0220034A1043086070470000A9
:1004F0000CED00E00000FA0510B5401EB0F1807F61
:1005000001D3012010BD4FF0E02460610F2160177E
:1005100000F0B0FD0020A06107202061002010BD88
:10052000FEE70000044908B58A6902438A618969C7
:100530000140009108BD000000100240044908B5C8
:100540008A6902438A6189690140009108BD0000FF
:100550000010024030B5264A002405790168131FB7
:1005600085B371B345798DB1012D17D0022D18D007
:10057000012483792BB31E4908310A1F012B18D09F
:10058000022B20D0032B22D0012428E015688D43B4
:10059000156001681A680A431A60EAE71D688D430E
:1005A00001E01D680D431D60016813680B43136073
:1005B000DFE703680D689D430D6000681168014323
:1005C00011600CE00DE0036815689D4302E00368CC
:1005D00015681D43156000680A6802430A602046DA
:1005E00030BD1D688D431D60006811688143E7E7D9
:1005F0000404014003490968884301D00020704782
:1006000001207047140401400A06930D064A1A445B
:10061000936823EA1143090C91FAA1F1B1FA81F12F
:10062000884003439360704700000140F0B50A68BA
:10063000C2F30F2595FAA5F2B2FA82F369E001221E
:100640009A402A4264D0082B03D240F201129A4009
:1006500006E0A3F108024FF00114944044F08062D8
:100660004C68082C0BD10C69C668170A97FAA7F7D3
:10067000B7FA87F726EA1226BC402643C66092FAEC
:10068000A2F700EB1264B7FA87F74FEA870C0F273F
:10069000266807FA0CF7BE4392FAA2F7D1F804E0F5
:1006A000B7FA87F7BF000EFA07FE46EA0E06266085
:1006B0004F68012F01D0092F2AD192FAA2F7B7FA79
:1006C00087F74FEA870C032707FA0CF7BE4392FA25
:1006D000A2F7B7FA87F7D1F808E0BF000EFA07FED5
:1006E00092FAA2FC46EA0E06BCFA8CFC4FEA8C0E8B
:1006F0004FF0040C26600CFA0EFC92FAA2F2B2FA49
:1007000082F2CF68920026EA0C0697403E432660AC
:100710005B1C35FA03F292D10020F0BD30B591FA9E
:10072000A1F400EB1160B4FA84F4A5000F24AC40EE
:1007300091FAA1F10368B1FA81F18900A3438A40DB
:100740001343036030BD000001490860704700009A
:1007500024000020F0B502681D4B1E4C1E4D4FF0CA
:10076000804E984205D0704503D0A04201D0A842E7
:1007700003D14E6822F070023243184E184FDFF852
:1007800064C098420BD0704509D0A04207D0A8425F
:1007900005D0B04203D0B84201D0604503D1CC6847
:1007A00022F44072224302608A68C2620A8882622E
:1007B000984205D0B04203D0B84201D0604501D183
:1007C00009690163416941F0010141610020F0BD07
:1007D000002C01400004004000080040004001409F
:1007E0000044014000480140012919D0042919D0D2
:1007F000102919D0402919D0B1F5807F18D0B1F552
:10080000806F17D006210C4A1830525C10440268E1
:10081000094BDB1D5B5C042199408A4302607047F1
:100820000021F0E70121EEE70221ECE70321EAE7EE
:100830000421E8E70521E6E730110008012919D075
:10084000042919D0102919D0402919D0B1F5807F79
:1008500018D0B1F5806F17D006210C4A1830525CC1
:1008600010440268094BDB1D5B5C082199400A4378
:10087000026070470021F0E70121EEE70221ECE77A
:100880000321EAE70421E8E70521E6E73011000843
:100890002DE9F0470023804C804D814E814F4FF071
:1008A000010C012908D0102943D0B1F5807F7DD0FB
:1008B000B1F5805F7FD1BFE0016A21F001010162E3
:1008C000D0F82090D0F804C08169D2F8008021F0DF
:1008D000730141EA080AD2F8108029F0020141EAC6
:1008E0000801D2F8048021F0010141EA0801A04288
:1008F00005D0A84203D0B04201D0B84212D1546909
:1009000021F0080141EA8401946821F0040141EAE0
:10091000840195692CF480742C43D56924F4007407
:1009200044EA450CC0F804C0C0F818A0D26842637D
:100930003FE0016A21F010010162D0F82090D0F868
:1009400004C08169D2F8008021F4E64141EA082A16
:10095000D2F8108029F0200141EA0811D2F8048071
:1009600021F0100141EA0811A04205D0A84203D0AD
:10097000B04201D0B84213D1546921F0800141EA5C
:100980008411946821F0400141EA841195692CF4A6
:10099000806444EA8504D56924F4006444EAC50C03
:1009A000C0F804C0C0F818A0D26801E006E002E078
:1009B000826301629C466046BDE8F087016A21F4CB
:1009C00080710162D0F82090D0F804C0C169D2F8DB
:1009D000008021F0730141EA080AD2F8108029F45E
:1009E000007141EA0821D2F8048021F4807141EAC3
:1009F0000821A04205D0A84203D0B04201D0B8429D
:100A000013D1546921F4006141EA8421946821F4EE
:100A1000806141EA842195692CF4805444EA0514EC
:100A2000D56924F4005444EA451CC0F804C0C0F859
:100A30001CA0D268C263BCE7016A21F48051016244
:100A4000D0F820904168D0F81CC0D2F800802CF477
:100A5000E64C4CEA082AD2F8108029F4005C4CEAF3
:100A6000083CD2F804802CF4805C4CEA083CA0429C
:100A700005D0A84203D0B04201D0B84204D1946955
:100A800021F4804141EA84114160C0F81CA0D16882
:100A90000164C0F820C08DE7002C014000400140F7
:100AA000004401400048014008B54FF0E0210A69C8
:100AB0000092421C00D0401C0A69D20300D5401E9F
:100AC0000028F9D108BD00002DE9F04F87B00025BE
:100AD0000095142102A80195FFF790FB1020FFF765
:100AE00021FD2020FFF71EFD0420FFF71BFD08203D
:100AF000FFF718FD694F40F20E707861684802A94F
:100B000001244FF00208059581E811013846FFF7EE
:100B10008DFD64484FF00409CDE90209DFF888B182
:100B200002A95846FFF782FDDFF880A10326CDF821
:100B300008A00595CDE9034602A93846FFF776FDE2
:100B40004FF470210020FFF75FFD4FF4700100208B
:100B5000FFF75AFD4FF070610020FFF755FD4FF091
:100B600070410020FFF750FD51490120FFF74CFD77
:100B70008DF804408DF8055000948DF806406846C5
:100B8000FFF7E8FC8DF804408DF80550CDF80080A3
:100B90008DF806406846FFF7DDFC8DF804408DF8BF
:100BA0000550CDF800908DF806606846FFF7D2FC3E
:100BB00008208DF8044000908DF805508DF80660EF
:100BC0006846FFF7C7FCA0028DF8044000908DF83E
:100BD00005508DF806406846FFF7BCFC354E40F2E4
:100BE0000111F06894FAA4F2B2FA82F220F0010046
:100BF00095402843F06008223046FFF78FFD04221D
:100C000040F202213046FFF789FD042240F2044100
:100C10003046FFF783FD042240F608013046FFF717
:100C20007DFD042251465846FFF778FD00F0FAF9A1
:100C30000022114600F05AF90146062000F00AFA97
:100C4000062000F0E1F900F0EDF90022012100F0AA
:100C50004DF90146072000F0FDF9072000F0D4F916
:100C600000F0E0F90022114600F040F901460820AA
:100C700000F0F0F9082000F0C7F900F0D3F90022E5
:100C8000114600F033F90146092000F0E3F909208C
:100C900000F0BAF907B0BDE8F08F00000010014085
:100CA0000F0E0304FB00FB04000C014004000404CD
:100CB0000200000F00080140F0B58BB01421684617
:100CC000FFF79CFA142105A8FFF798FA4FF400608B
:100CD000FFF734FC0420FFF731FC3948059004206D
:100CE000069005A93748FFF7A1FC37480068C0F314
:100CF0000220C0F10701042900D90421021D072A9E
:100D000001D2002000E0C01E012606FA01F2521EA8
:100D100002F002018140002508012C4981F80004FD
:100D20004FF0E021F006C1F80001ADF8005045F6A3
:100D3000BF50CDE90150264C0395694620460495E5
:100D4000FFF708FD206820F080002060A06844F2D2
:100D500007018843A060606820F070006060A068B0
:100D600020F08000A0601B48017819481830014429
:100D70000A68184803230E300778BB409A43FBB239
:100D80009E4032430A600B6806780C22B2409343BF
:100D900005FA06F213430B600B680678F020B040AA
:100DA000834313430B60206A0A490A2215310B78EA
:100DB0009A40D9B290438D40284320620BB0F0BDD9
:100DC00001000104000801400CED00E01BE000E020
:100DD000002C01403011000830B593B014210DA84B
:100DE000FFF70CFA20216846FFF708FA142108A83B
:100DF000FFF704FA3648C16941F00101C161C069D9
:100E0000002400F0010012904FF6FF70CDE90E4073
:100E10004FF08045ADF834400DA928461094FFF7F7
:100E200099FC286840F080002860A86844F2070117
:100E30008843A86001212846FFF700FD6020CDE926
:100E40000004029403946A46012128460494FFF7A3
:100E50001FFD01212846FFF7C7FC10212846FFF798
:100E6000EDFC6A4610212846FFF712FD10212846A6
:100E7000FFF7BAFC686820F070006860A86820F08E
:100E80008000A8600420FFF759FB0820FFF756FBFD
:100E900010480925CDE908050320CDE90A0408A971
:100EA0000D48FFF7C3FB40F60800CDE90805022016
:100EB000CDE90A0408A90948FFF7B8FB08484168CA
:100EC000084A21F400711143416013B030BD0000A5
:100ED000001002408000800400080140000C014026
:100EE0000000014000010007FEE7FEE730B500F01A
:100EF0000703C3F10704042C00D90424181D072894
:100F000001D2002300E0DB1E012505FA04F0401E9B
:100F1000084098409D406D1E1540284330BD7047E5
:100F20007047FFF765BA0000234810B5016821F04B
:100F3000F80141F080010160016841F001010160A8
:100F40000168C1F340010029FAD0416821F47C1204
:100F500042F4801200214260C26A61F30302C2625D
:100F6000016841F0807101600168C1F340610029AE
:100F7000FAD0416821F0F0014160416821F4E0615C
:100F80004160416821F460514160416821F00301F2
:100F900041F002014160416801F00C010829FAD1D9
:100FA0000648FFF7D1FB0020FFF736FA002801D0F2
:100FB00072B6FEE710BD00000010024000366E0160
:100FC0007047000007480068074908800548203836
:100FD000016841F001010160001F016821F0020178
:100FE00001607047342C014002000020FEE7002819
:100FF00009DB00F01F02012191404009800000F14F
:10100000E020C0F800117047002809DB00F01F0243
:10101000012191404009800000F1E020C0F800115A
:101020007047000002480068C0F3022070470000CB
:101030000CED00E00907090E002804DB00F1E020B8
:1010400080F80014704700F00F0000F1E02080F8F5
:10105000141D70470907090E002804DB00F1E02089
:1010600080F80014704700F00F0000F1E02080F8D5
:10107000141D70470907090E002804DB00F1E02069
:1010800080F80014704700F00F0000F1E02080F8B5
:10109000141D7047FFF7B4F9FFF746FFFFF714FD83
:1010A000FFF79AFEFFF708FE4FF47A70FFF7FCFC9B
:1010B0001B20FFF79CFF03211B20FFF7BBFF1A48F3
:1010C000016841F00101016017481438016841F0DE
:1010D0000201016014482038016841F001010160FB
:1010E0000720FFF784FF02210720FFF7A3FF0F4C23
:1010F000206840F0020020600820FFF778FF0121FF
:101100000820FFF797FF206840F0040020600920C6
:10111000FFF76DFF00210920FFF78CFF206840F0EA
:1011200008002060FEE70000202C01400004014080
:101130000000000004040400000800000008000093
:10114000080000000800020406080A0C6C110008E0
:1011500000000020280000005C0100089411000835
:101160002800002060060000780100080000102719
:10117000000000000000000000000000000000006F
:10118000000000000100000010000000000000004E
:041190000024F40043
:0400000508000121CD
:00000001FF
