:020000040800F2
:1000000068060020BD0100086F0B0008F902000817
:100010006D0B0008C30200086D0C00080000000012
:10002000000000000000000000000000A50B000818
:10003000C502000800000000A30B0008A70B000881
:10004000D7010008D7010008D7010008D701000830
:10005000D7010008D7010008D7010008C90200082D
:10006000E1020008D7010008D7010008D701000805
:10007000D7010008D7010008D7010008D701000800
:10008000D7010008D7010008D701000800000000D0
:10009000000000000000000000000000D701000880
:1000A000D7010008D7010008D7010008D7010008D0
:1000B000D7010008410C0008D7010008D70100084B
:1000C000D7010008D7010008D7010008D7010008B0
:1000D000D7010008D7010008D7010008D7010008A0
:1000E000D7010008D7010008D70100080000000070
:1000F0000000000000000000000000000000000000
:1001000000000000000000000000000000000000EF
:100110000000000000000000D7010008D70100081F
:1001200000F002F800F03AF80AA090E8000C8244CF
:100130008344AAF10107DA4501D100F02FF8AFF2AC
:10014000090EBAE80F0013F0010F18BFFB1A43F0B5
:1001500001031847440C0000640C0000103A24BF4F
:1001600078C878C1FAD8520724BF30C830C144BF1C
:1001700004680C607047000000230024002500265E
:10018000103A28BF78C1FBD8520728BF30C148BFFA
:100190000B6070471FB51FBD10B510BD00F058F8BB
:1001A0001146FFF7F7FF00F07FFD00F076F803B48B
:1001B000FFF7F2FF03BC00F07DF80000094880471C
:1001C00009480047FEE7FEE7FEE7FEE7FEE7FEE739
:1001D000FEE7FEE7FEE7FEE704480549054A064B51
:1001E000704700003D0C0008210100086800002055
:1001F0006806002068020020680200204FF000021C
:1002000000B5134694469646203922BFA0E80C500C
:10021000A0E80C50B1F12001BFF4F7AF090728BFE7
:10022000A0E80C5048BF0CC05DF804EB890028BF63
:1002300040F8042B08BF704748BF20F8022B11F08C
:10024000804F18BF00F8012B704770477047704708
:10025000754600F02BF8AE4605006946534620F07F
:100260000700854618B020B5FFF7B6FFBDE820406F
:100270004FF000064FF000074FF000084FF0000B62
:1002800021F00701AC46ACE8C009ACE8C009ACE815
:10029000C009ACE8C0098D46704710B50446AFF3FD
:1002A00000802046BDE81040FFF781BF004870473E
:1002B0000800002001491820ABBEFEE7260002001E
:1002C0007047FEE77047000010B5022000F08AF882
:1002D000002802D001490220086010BD140401402A
:1002E00010B5042000F07EF8002802D00149042057
:1002F000086010BD14040140FEE70000044908B581
:10030000CA690243CA61C9690140009108BD000081
:1003100000100240044908B58A6902438A6189696C
:100320000140009108BD000000100240044908B5DA
:100330008A6902438A6189690140009108BD000011
:100340000010024030B5264A002405790168131FC9
:1003500085B371B345798DB1012D17D0022D18D019
:10036000012483792BB31E4908310A1F012B18D0B1
:10037000022B20D0032B22D0012428E015688D43C6
:10038000156001681A680A431A60EAE71D688D4320
:1003900001E01D680D431D60016813680B43136085
:1003A000DFE703680D689D430D6000681168014335
:1003B00011600CE00DE0036815689D4302E00368DE
:1003C00015681D43156000680A6802430A602046EC
:1003D00030BD1D688D431D60006811688143E7E7EB
:1003E0000404014003490968884301D00020704794
:1003F00001207047140401400A06930D064A1A446E
:10040000936823EA1143090C91FAA1F1B1FA81F141
:10041000884003439360704700000140F0B50A68CC
:10042000C2F30F2595FAA5F2B2FA82F369E0012230
:100430009A402A4264D0082B03D240F201129A401B
:1004400006E0A3F108024FF00114944044F08062EA
:100450004C68082C0BD10C69C668170A97FAA7F7E5
:10046000B7FA87F726EA1226BC402643C66092FAFE
:10047000A2F700EB1264B7FA87F74FEA870C0F2751
:10048000266807FA0CF7BE4392FAA2F7D1F804E007
:10049000B7FA87F7BF000EFA07FE46EA0E06266097
:1004A0004F68012F01D0092F2AD192FAA2F7B7FA8B
:1004B00087F74FEA870C032707FA0CF7BE4392FA37
:1004C000A2F7B7FA87F7D1F808E0BF000EFA07FEE7
:1004D00092FAA2FC46EA0E06BCFA8CFC4FEA8C0E9D
:1004E0004FF0040C26600CFA0EFC92FAA2F2B2FA5B
:1004F00082F2CF68920026EA0C0697403E432660BF
:100500005B1C35FA03F292D10020F0BD30B591FAB0
:10051000A1F400EB1160B4FA84F4A5000F24AC4000
:1005200091FAA1F10368B1FA81F18900A3438A40ED
:100530001343036030BD4FF47A71B0FBF1F14FF01B
:10054000E020491E41610021816105210161704760
:10055000014908607047000004000020F0B50268FF
:100560001D4B1E4C1E4D4FF0804E984205D07045DD
:1005700003D0A04201D0A84203D14E6822F07002FD
:100580003243184E184FDFF864C098420BD07045C4
:1005900009D0A04207D0A84205D0B04203D0B8424B
:1005A00001D0604503D1CC6822F44072224302603E
:1005B0008A68C2620A888262984205D0B04203D03B
:1005C000B84201D0604501D109690163416941F038
:1005D000010141610020F0BD002C014000040040F9
:1005E0000008004000400140004401400048014034
:1005F0002DE9F0470023804C804D814E814F4FF014
:10060000010C012908D0102943D0B1F5807F7DD09D
:10061000B1F5805F7FD1BFE0016A21F00101016285
:10062000D0F82090D0F804C08169D2F8008021F081
:10063000730141EA080AD2F8108029F0020141EA68
:100640000801D2F8048021F0010141EA0801A0422A
:1006500005D0A84203D0B04201D0B84212D15469AB
:1006600021F0080141EA8401946821F0040141EA83
:10067000840195692CF480742C43D56924F40074AA
:1006800044EA450CC0F804C0C0F818A0D268426320
:100690003FE0016A21F010010162D0F82090D0F80B
:1006A00004C08169D2F8008021F4E64141EA082AB9
:1006B000D2F8108029F0200141EA0811D2F8048014
:1006C00021F0100141EA0811A04205D0A84203D050
:1006D000B04201D0B84213D1546921F0800141EAFF
:1006E0008411946821F0400141EA841195692CF449
:1006F000806444EA8504D56924F4006444EAC50CA6
:10070000C0F804C0C0F818A0D26801E006E002E01A
:10071000826301629C466046BDE8F087016A21F46D
:1007200080710162D0F82090D0F804C0C169D2F87D
:10073000008021F0730141EA080AD2F8108029F400
:10074000007141EA0821D2F8048021F4807141EA65
:100750000821A04205D0A84203D0B04201D0B8423F
:1007600013D1546921F4006141EA8421946821F491
:10077000806141EA842195692CF4805444EA05148F
:10078000D56924F4005444EA451CC0F804C0C0F8FC
:100790001CA0D268C263BCE7016A21F480510162E7
:1007A000D0F820904168D0F81CC0D2F800802CF41A
:1007B000E64C4CEA082AD2F8108029F4005C4CEA96
:1007C000083CD2F804802CF4805C4CEA083CA0423F
:1007D00005D0A84203D0B04201D0B84204D19469F8
:1007E00021F4804141EA84114160C0F81CA0D16825
:1007F0000164C0F820C08DE7002C0140004001409A
:10080000004401400048014008B54FF0E0210A696A
:100810000092421C00D0401C0A69D20300D5401E41
:100820000028F9D108BD00002DE9F04788B0002567
:100830000095142102A80195FFF7E0FC1020FFF7B6
:1008400069FD2020FFF766FD0420FFF763FD082007
:10085000FFF760FD3F4EDFF8F8A04FF44070706185
:100860004FF470010020FFF7C7FD4FF070610020CA
:10087000FFF7C2FD38490120FFF7BEFD01248DF8C6
:10088000044002278DF8055000978DF80640684611
:10089000FFF758FD8DF804404FF004088DF805501F
:1008A000CDF800808DF806406846FFF74BFDA002AA
:1008B0008DF8044000908DF805508DF8064068468C
:1008C000FFF740FDDFF89490042240F202214846F1
:1008D000FFF71CFE042240F204414846FFF716FED3
:1008E000DFF8809004221E494846FFF70FFE1E489D
:1008F000CDE9020802A94846FFF790FDCDF808A00F
:100900000595CDE9034702A93046FFF787FD174C4F
:1009100020680022C0F30220114600F029F90146A8
:10092000072000F0B1F9072000F0A1F920680022AB
:10093000C0F30220114600F01BF90146082000F028
:10094000A3F9082000F093F908B0BDE8F087000093
:1009500003000304001001400200000F00080140E2
:1009600004000404000C0140FB00FB040CED00E05B
:10097000F0B593B0142108A8FFF740FC2021684689
:10098000FFF73CFC14210DA8FFF738FC0120FFF70E
:10099000B5FC0026ADF820604FF6FF70CDE9096088
:1009A0004FF0804408A920460B96FFF7D7FD20683A
:1009B00020F080002060A06844F207018843A06016
:1009C0001E48057805F18045183528681B4F082119
:1009D000FF1D3A789140084328606020CDE9000669
:1009E000029603966A46012120460496FFF700FE10
:1009F00028683A780421914088432860606820F094
:100A000070006060A06820F08000A0600420FFF704
:100A10008DFC0B480D9009200E900320CDE90F06A8
:100A20000DA90848FFF7FAFC07484168074A21F476
:100A300000711143416013B0F0BD00007C0D00084F
:100A40008000800400080140000001400001000710
:100A5000F0B58BB014216846FFF7D0FB142105A830
:100A6000FFF7CCFB0220FFF749FC0420FFF75EFCF8
:100A700044F2400005900420069005A93648FFF78F
:100A8000CDFC36480068C0F30220C0F107010429FC
:100A900000D90421021D072A01D2002000E0C01E57
:100AA000012606FA01F2521E02F0010181400025E2
:100AB00008012B4981F800044FF0E0217007C1F8CC
:100AC0000001ADF8005045F6BF50CDE90150254C6E
:100AD000694620460395FFF741FD206820F080001D
:100AE0002060A06844F207018843A060606820F09D
:100AF00070006060A06820F08000A0601A48017853
:100B00001848183001440A68174803230E30077844
:100B1000BB409A43FBB29E4032430A600B680678A2
:100B20000C22B240934305FA06F213430B600B68A4
:100B30000678F020B040834313430B60216A0A48D3
:100B40000A22153003789A40D8B291438540294350
:100B500021620BB0F0BD0000000801400CED00E088
:100B60001DE000E0000400407C0D0008FEE7FEE709
:100B700030B500F00703C3F10704042C00D90424A6
:100B8000181D072801D2002300E0DB1E012505FA0D
:100B900004F0401E084098409D406D1E15402843BB
:100BA00030BD704770477047224810B5016821F08A
:100BB000F80141F080010160016841F0010101602C
:100BC0000168C1F340010029FAD0416821F47C1288
:100BD00042F4801200214260C26A61F30302C262E1
:100BE000016841F0807101600168C1F34061002932
:100BF000FAD0416821F0F0014160416821F4E061E0
:100C00004160416821F460514160416821F0030175
:100C100041F002014160416801F00C010829FAD15C
:100C2000054C2046FFF787FC2046BDE81040FFF743
:100C30008FBC00000010024000366E0170470000BB
:100C400008480068084908604FF08040416941F059
:100C50000101416103482438016821F0020101606B
:100C6000704700003404004000000020FEE7002828
:100C700009DB00F01F02012191404009800000F1D2
:100C8000E020C0F8001170470907090E002804DBB6
:100C900000F1E02080F80014704700F00F0000F130
:100CA000E02080F8141D70472E4808B5816941F096
:100CB00001018161816901F001010091C16941F087
:100CC0008051C161C069284900F0805000900868D7
:100CD0004FF6FF021040254A40F440701043086070
:100CE0002348416821F0E06141F000714160FFF765
:100CF0005BFFFFF799FDFFF7ABFEFFF739FE4FF4FF
:100D00007A70FFF781FD4FF0E0214FF00050C1F8FD
:100D100000011849102081F800041748016841F0CB
:100D20000101016014481438016841F002010160BA
:100D300011482038016841F001010160000545F6C5
:100D4000C051C16240F2F3514163416941F0010178
:100D50004161016A41F001010162016841F0010154
:100D60000160FEE7001002400CED00E00000FA0513
:100D7000000001401DE000E02004004000000000F1
:100D8000040404000008000000080000080000003F
:100D90000800020406080A0CB80D00080000002034
:100DA000080000005C010008C00D000808000020D9
:100DB0006006000078010008000000000024F40034
:0400000508000121CD
:00000001FF
