:020000040800F2
:10000000B8060020BD0100086F120008DD100008CE
:100010006D120008C30200084F160008000000001F
:100020000000000000000000000000007312000843
:10003000C5020008000000007112000875120008D7
:10004000D7010008D7010008D7010008D701000830
:10005000D7010008D7010008D7010008D701000820
:10006000D7010008D7010008D7010008D701000810
:10007000D7010008D7010008D7010008D701000800
:10008000D7010008D7010008D701000800000000D0
:10009000000000000000000000000000D701000880
:1000A000D7010008D7010008D7010008D7010008D0
:1000B000D7010008D1120008D7010008D7010008B5
:1000C000D7010008D7010008D7010008D7010008B0
:1000D000D7010008D7010008D7010008D7010008A0
:1000E000D7010008D7010008D70100080000000070
:1000F0000000000000000000000000000000000000
:1001000000000000000000000000000000000000EF
:100110000000000000000000D7010008D70100081F
:1001200000F002F800F03AF80AA090E8000C8244CF
:100130008344AAF10107DA4501D100F02FF8AFF2AC
:10014000090EBAE80F0013F0010F18BFFB1A43F0B5
:10015000010318476015000080150000103A24BF05
:1001600078C878C1FAD8520724BF30C830C144BF1C
:1001700004680C607047000000230024002500265E
:10018000103A28BF78C1FBD8520728BF30C148BFFA
:100190000B6070471FB51FBD10B510BD00F058F8BB
:1001A0001146FFF7F7FF01F063FA00F076F803B4A9
:1001B000FFF7F2FF03BC00F07DF80000094880471C
:1001C00009480047FEE7FEE7FEE7FEE7FEE7FEE739
:1001D000FEE7FEE7FEE7FEE704480549054A064B51
:1001E00070470000CF12000821010008B80000206D
:1001F000B8060020B8020020B80200204FF000022C
:1002000000B5134694469646203922BFA0E80C500C
:10021000A0E80C50B1F12001BFF4F7AF090728BFE7
:10022000A0E80C5048BF0CC05DF804EB890028BF63
:1002300040F8042B08BF704748BF20F8022B11F08C
:10024000804F18BF00F8012B704770477047704708
:10025000754600F02BF8AE4605006946534620F07F
:100260000700854618B020B5FFF7B6FFBDE820406F
:100270004FF000064FF000074FF000084FF0000B62
:1002800021F00701AC46ACE8C009ACE8C009ACE815
:10029000C009ACE8C0098D46704710B50446AFF3FD
:1002A00000802046BDE81040FFF781BF004870473E
:1002B0005800002001491820ABBEFEE726000200CE
:1002C0007047FEE7704772B6FEE700002DE9F84F71
:1002D000DFF8B8910024A9F1040B23460F2709F198
:1002E000040AABF1040EC9E00125A5402A40AA4248
:1002F0007DD1674ED1F804C0ACEB0608B44532D0CE
:1003000014DCBCF1030F3AD009DCBCF1000F2AD099
:10031000BCF1010F1CD0BCF1020F31D11DE0BCF1CA
:10032000110F17D0BCF1120F2AD119E0B8F5881FB0
:1003300019D006DCB8F5803F15D0B8F5801F1FD165
:1003400011E0B8F5001F0ED0B8F5041F18D10AE06F
:10035000CB6815E0CB681B1D12E0CB6808330FE0BB
:10036000CB680C330CE08B682BB1012B4FF00803EA
:1003700003D0456104E0042302E0056100E00023AE
:10038000FF2A01D8064601E000F104064FEA840581
:1003900001D9A5F12005D6F8008007FA05FC28EA66
:1003A0000C0803FA05F548EA0508C6F800804D6810
:1003B000ED0062D5374DAE6946F00106AE61AD691C
:1003C00024F0030605F001050095334D06EB050CFE
:1003D000DCF80850A607360F07FA06F825EA0805E4
:1003E000DFF8B880404503D14FF0000817E044E043
:1003F000DFF8AC80404502D14FF001080FE0DFF894
:10040000A480404502D14FF0020808E0DFF8988050
:10041000404502D14FF0030801E04FF0040808FA0C
:1004200006F848EA0508CCF808804D68D9F800605D
:10043000ED024D4601D5164300E096432E604D680F
:10044000DAF80060AD02554601D5164300E0964348
:100450002E604D68DBF80060AD035D4601D51643A4
:1004600000E096432E604D68DEF80060ED037546AF
:1004700001D5164300E096432E60641C0D682A46A1
:10048000E5407FF431AFBDE8F88F0000080401407B
:10049000000011100010024000000140000801405F
:1004A000000C014000100140001401400AB101613C
:1004B00070470904FBE700000148806870470000AE
:1004C0000000002002488168027811448160704772
:1004D0000000002010B5032000F074F8002000F0A8
:1004E00005F800F023F8002010BD000070B50D4D98
:1004F00004464FF47A712878B1FBF0F00A49096894
:10050000B1FBF0F000F09AFA48B9102C07D20022A3
:100510002146501E00F036F800206C6070BD0120AE
:1005200070BD0000000000200C0000200C4808B541
:10053000816941F001018161816901F0010100914E
:10054000C16941F08051C161C06900F080500090E4
:100550000448416821F0E06141F00071416008BD4C
:100560000010024000000140002809DB00F01F02DB
:10057000012191404009800000F1E020C0F8001105
:1005800070470000F0B40E4B1B680C46C3F3022307
:10059000C3F10705042D00D90425191D072901D22F
:1005A000002300E0DB1E012606FA05F1491E21406A
:1005B00099409E40761E16403143F0BC01F048B889
:1005C0000CED00E0064900F0070208684FF6FF0353
:1005D000184040EA0220034A1043086070470000B8
:1005E0000CED00E00000FA052DE9F041050027D0F0
:1005F0002868334C810712D5400703D5606840F462
:10060000E06060602878000703D5606840F46050BF
:1006100060606068A96820F0F00008436060287896
:10062000C00729D06868012804D02168022804D0B6
:10063000890703E02168890300E08901002902DBC2
:100640000120BDE8F081616821F003010143616090
:10065000FFF732FF064641F2883706E0FFF72CFF2E
:10066000801BB84201D90320EBE76068696800F09D
:100670000C00B0EB810FF1D12878400705D56068F8
:10068000E96820F4E060084360602878000706D538
:100690006068296920F4605040EAC100606000F0A1
:1006A00017F86168074AC1F30311515CC840064955
:1006B000086006480068FFF719FF0020C1E7000046
:1006C00000100240A21600080C00002004000020C8
:1006D0000E4A51680E4801F00C03042B11D0082B70
:1006E0000FD10C48C1F38343C903C05C0AD5D16A5A
:1006F000084A01F00F011032515C054A5043B0FB2B
:10070000F1F0704704494843704700000010024070
:1007100000127A008216000800093D002DE9F84F0A
:10072000040070D02078C04DC00749D06868C0F37D
:100730008100012807D06868C0F38100022809D130
:100740006868C00306D52868800339D5606800282A
:10075000E7D035E06068B0F5803F0BD010B1B0F560
:10076000A02F11D0286820F480302860286820F459
:10077000802002E0286840F480302860606890B1F2
:10078000FFF79AFE06460AE0286840F480202860B9
:10079000F0E700BFFFF790FE801B642873D828683D
:1007A0008003F7D50CE0FFF787FE064605E000BFA3
:1007B000FFF782FE801B6428F0D828688003F7D4F6
:1007C00020789A4E80074FF001094FF0000839D584
:1007D000686810F00C0F07D06868C0F38100022829
:1007E00009D16868C00306D42868800714D5206939
:1007F000012808D110E02069B0B1C6F80090FFF7D9
:100800005BFE074605E00AE1FFF756FEC01B022823
:10081000C4D828688007F7D52868616920F0F800F7
:1008200040EAC10028600DE0C6F80080FFF744FEF2
:10083000074604E0FFF740FEC01B022823D82868C3
:100840008007F7D4207800072CD57948A169D9B161
:10085000C0F80090FFF730FE074604E0FFF72CFEDB
:10086000C01B02280FD8686A8007F7D571484FF47B
:10087000FA510068B0FBF1F0009000BF0098411EF3
:100880000091FAD20EE080E0C0F80080FFF714FE7D
:10089000074604E0FFF710FEC01B022875D8686AFF
:1008A0008007F7D42078400760D5E8690027C000AA
:1008B00008D4E86940F08050E861E869012700F059
:1008C000805000905C480168C90513D401688346D4
:1008D00041F480710160FFF7EFFD824606E000BF42
:1008E000FFF7EAFDA0EB0A0064284ED8DBF8000011
:1008F000C005F5D5E06801280AD008B1052813D055
:10090000286A20F001002862286A20F0040002E032
:10091000286A40F001002862E06841F2883B98B103
:10092000FFF7CAFD82460BE0286A40F00400286207
:10093000EEE700BFFFF7C0FDA0EB0A0159455AD80A
:10094000286A8007F6D50CE0FFF7B6FD824605E081
:10095000FFF7B2FDA0EB0A0159454CD8286A800781
:10096000F6D41FB1E86920F08050E861E06988B3EF
:100970006968C1F38101022944D00228C6F8608069
:1009800004D0FFF799FD044638E034E0FFF794FD0A
:10099000074604E0FFF790FDC01B02282BD828680B
:1009A0008001F7D4206AB0F5803F05D1E86AA168DC
:1009B00020F00F000843E862D4E9080108436968A1
:1009C00021F4741108436860C6F86090FFF774FD65
:1009D000044606E025E000BFFFF76EFD001B02287D
:1009E00009D828688001F7D51BE000BFFFF764FD38
:1009F000001B022802D90320BDE8F88F2868800177
:100A0000F4D40EE00128F7D06868226A00F480313F
:100A1000914204D1616A00F47010884201D0012033
:100A2000EAE70020E8E70000001002400000424230
:100A3000800442420C0000200070004010B5401EAF
:100A4000B0F1807F01D3012010BD4FF0E024606140
:100A50000F21601700F0FCFD0020A061072020613D
:100A6000002010BD7047704770B590F83C20012AF7
:100A700029D0012480F83C40022280F83D20036800
:100A80005A689D6822F070060A6832435A600F4B1C
:100A900002689A420BD0B2F1804F08D00C4B9A42B8
:100AA00005D00C4B9A4202D00B4B9A4204D14968B4
:100AB00025F080031943916080F83D40002180F8C3
:100AC0003C10084670BD022070BD0000002C0140A3
:100AD00000040040000800400040014010B5040040
:100AE00003D094F83D0010B107E0012010BD0020B4
:100AF00084F83C00204600F01FF8022084F83D00F6
:100B0000211D206800F0EAFB012084F8460084F8EB
:100B10003E0084F83F0084F8400084F8410084F8E7
:100B2000420084F8430084F8440084F8450084F8C7
:100B30003D00002010BD000000B585B000210091EF
:100B40000191029103910068114988421ED1114818
:100B5000C16941F00201C161C16901F00201049162
:100B6000816941F0040181618069694600F00400F7
:100B70000490402000900848FFF7A8FB002211468F
:100B80001D20FFF7FFFC1D20FFF7EEFC05B000BDA8
:100B900000040040001002400008014070B5044607
:100BA00090F83C000025012817D0012684F83C600D
:100BB000022084F83D002068826822F0770222F447
:100BC0007F4282600868502838D00DDC20284FD042
:100BD00005DC90B3102811D14AE0022070BD302806
:100BE00046D040280AD13BE060282FD070280DD095
:100BF000B0F5805F03D0B0F5005F12D0012584F816
:100C00003D60002084F83C00284670BDCB68D1E9E7
:100C10000121206800F0AEFB2068816841F0770177
:100C200009E0CB68D1E90121206800F0A3FB20682E
:100C3000816841F480418160E1E719E0CA68496850
:100C4000206800F093FC5021206806E0CA684968DB
:100C5000206800F0CFFC6021206800F095FBCEE713
:100C6000CA684968206800F081FC40212068F4E7E8
:100C7000226801461046F0E770472DE9F04105462D
:100C800090F83C0000260C46012810D0012085F881
:100C90003C0072B1042A1CD0082A2CD00C2A50D057
:100CA0000126002085F83C003046BDE8F081022096
:100CB000FBE7D4E90012E368286800F069FC2868C3
:100CC000816921F00C01816128688169A268114362
:100CD0000FE0D4E90012E368286800F09DFC286862
:100CE000816921F44061816128688169A26841EAD3
:100CF00002218161D5E72868D4E9002C277B036AAB
:100D0000016A21F480710162C16923F4007321F04A
:100D1000030141EA0C0121F0F00C39074FF4007790
:100D20004CEA116107EA02221A43C1610262286893
:100D3000C16921F00C01C1612868C169A268114331
:100D40002BE02868D4E90021E768036AD0F820C0C6
:100D50002CF4805CC0F820C0D0F81CC023F40053F1
:100D60002CF4407C4CEA012121F4704C4FF6FF71C9
:100D700001EA07314FF4005741EA0C0107EA023259
:100D80001A43C16102622868C16921F44061C161EE
:100D90002868C169A26841EA0221C16181E710B5F2
:100DA000040003D094F83D0010B107E0012010BD0D
:100DB000002084F83C00204600F01EF8022084F851
:100DC0003D00211D206800F089FA012084F84600CA
:100DD00084F83E0084F83F0084F8400084F8410025
:100DE00084F8420084F8430084F8440084F8450005
:100DF00084F83D00002010BD704770B504460068BF
:100E000001694FF00005C943890715D4C168C9437A
:100E1000890711D4E91E01610120207720688069CB
:100E20008007204602D0FFF727FF04E000F0BEF85D
:100E3000204600F050F9257720680169C943490729
:100E400017D4C168C943490713D46FF00401016185
:100E5000022020772068806910F4407F204602D06D
:100E6000FFF70AFF04E000F0A1F8204600F033F994
:100E7000257720680169C943090716D4C168C943A9
:100E8000090712D46FF0080101610420207720685F
:100E9000C0698007204602D0FFF7EEFE04E000F0B4
:100EA00085F8204600F017F9257720680169C943C5
:100EB000C90617D4C168C943C90613D46FF010011D
:100EC0000161082020772068C06910F4407F204627
:100ED00002D0FFF7D1FE04E000F068F8204600F0F1
:100EE000FAF8257720680169C943C90708D1C168A4
:100EF000C943C90704D1891E0161204600F0ECF8FE
:100F000020680169C943090609D4C168C9430906B3
:100F100005D46FF0800101612046FFF7A3FD206832
:100F20000169C943490609D4C168C943490605D4C2
:100F30006FF040010161204600F0CFF820680169A0
:100F4000C94389060BD4C168C943890607D46FF029
:100F5000200101612046BDE87040FFF784BD70BDEF
:100F600000B585B0002100910191029103910068C4
:100F70000B49884212D10B48816941F0040181611B
:100F80008069694600F004000490802000900220EF
:100F90000190032003900448FFF798F905B000BDC5
:100FA000000400400010024000080140704770B586
:100FB000044690F83C0000260D4601280FD0012081
:100FC00084F83C006AB1042A1DD0082A2FD00C2ACC
:100FD0003FD00126002084F83C00304670BD02203E
:100FE00070BD206800F0D8F92068816941F00801DF
:100FF00081612068816921F0040181612068816933
:101000002A69114311E0206800F006FA206881691E
:1010100041F4006181612068816921F4806181610E
:10102000206881692A6941EA02218161D2E720684A
:1010300000F02EFA2068C16941F00801C161206802
:10104000C16921F00401C1612068C1692A691143A5
:1010500011E0206800F058FA2068C16941F400618D
:10106000C1612068C16921F48061C1612068C169E2
:101070002A6941EA0221C161ACE710B5040003D03E
:1010800094F83D0010B107E0012010BD002084F865
:101090003C00204600F01EF8022084F83D00211D8F
:1010A000206800F01BF9012084F8460084F83E0017
:1010B00084F83F0084F8400084F8410084F842003E
:1010C00084F8430084F8440084F8450084F83D0027
:1010D000002010BD7047704770477047FEE7000062
:1010E000F0B585B000242A4800940194029403943A
:1010F000816941F010018161816901F01001049161
:10110000816941F020018161816901F02001049130
:10111000816941F004018161816901F00401049158
:10112000816941F00801816180691A4F00F008006F
:101130004FF440760490002231463846FFF7B6F966
:10114000154D0620CDE90005694602941348FFF7C6
:10115000BDF83815CDE90005114D694602942846C1
:10116000FFF7B4F84FF47B40CDE900046946284608
:101170000294FFF7ABF801200096CDE901040220AC
:10118000039069463846FFF7A1F805B0F0BD0000AE
:101190000010024000100140000011100008014042
:1011A000000C014010B592B000240B940C940D94E7
:1011B0000E940F9410940794089409941C21684687
:1011C0000A94FFF71BF828482649C0E9001445F6A1
:1011D000BF51C0E9024104618461FFF77FFC08B19F
:1011E000FFF771F84FF480500B900BA91E48FFF7E2
:1011F000D5FC08B1FFF767F81B48FFF7D0FD08B131
:10120000FFF761F81848FFF738FF08B1FFF75BF800
:101210000F940FA914481094FFF726FC08B1FFF7AC
:1012200052F80120CDE907400420CDE90940002211
:1012300007A90D48FFF721FD08B1FFF744F860202A
:10124000CDE9000402940422694607480494FFF79C
:10125000AEFE08B1FFF737F80348FFF781FE12B082
:1012600010BD00000004004010000020FEE7FEE773
:1012700070477047FFF726B930B58FB02821684610
:10128000FEF7BCFF14210AA8FEF7B8FF02250120D3
:10129000049000951020059000240004CDE908403A
:1012A00007956846FFF73AFA08B172B6FEE70F20D5
:1012B0000A90CDE90B540D9400210AA80E94FFF773
:1012C00093F9002801D072B6FEE70FB030BD704729
:1012D0000148FFF792BD000010000020F0B5026841
:1012E0001E4B1F4C1F4D4FF0804E984205D070454D
:1012F00003D0A04201D0A84203D122F070064A6870
:101300003243194E194FDFF868C098420BD0704530
:1013100009D0A04207D0A84205D0B04203D0B842BD
:1013200001D0604503D122F44074CA6822434C695D
:1013300022F08002224302608A68C2620A688262E6
:10134000984205D0B04203D0B84201D0604501D1E7
:101350000969016301214161F0BD0000002C0140D9
:1013600000040040000800400040014000440140EB
:101370000048014010B5846842EA032224F47F4407
:101380000A432243826010BD826822F070020A4341
:1013900042F0070181607047F0B5026A036A23F0EA
:1013A0000103036243688469184E24F073050C68D6
:1013B000174F2C4322F002058A68DFF858C02A43F1
:1013C000114DA84205D0B04203D0B84201D06045CB
:1013D00006D122F0080ECA6842EA0E0222F0040288
:1013E000A84205D0B04203D0B84201D0604505D133
:1013F0004D6923F440731D438B692B434360846123
:10140000496841630262F0BD002C01400040014088
:10141000004401400048014030B5026A036A23F0ED
:1014200010030362436884690D6824F4E64444EAC7
:1014300005248D6822F0200242EA0512104DA842D0
:1014400007D1CD6822F0800242EA051222F0400264
:1014500008E00C4DA84205D00B4DA84202D00B4D20
:10146000A84207D14D6923F4406343EA85038D699F
:1014700043EA85034360846149688163026230BD49
:10148000002C014000400140004401400048014060
:1014900030B5036A026A22F4807202624268C4694B
:1014A00023F4007324F073050C682C438D6843EA21
:1014B0000523114DA84207D1CD6823F4006343EA08
:1014C000052323F4806308E00C4DA84205D00C4DA1
:1014D000A84202D00B4DA84207D14D6922F44052D8
:1014E00042EA05128D6942EA05124260C461496808
:1014F000C163036230BD0000002C01400040014088
:10150000004401400048014030B5046A026A22F4F8
:10151000805202624268C3690D6823F4E64343EADD
:1015200005238D6824F4005444EA05340B4DA84289
:1015300008D00B4DA84205D00A4DA84202D00A4D52
:10154000A84204D14D6922F4804242EA85124260E9
:10155000C36149680164046230BD0000002C014091
:1015600000400140004401400048014010B5036ABA
:10157000046A24F001040462846924F0F00444EA5B
:10158000021423F00A020A438461026210BD0000C3
:1015900070B5056A046A24F0010404628469114E7E
:1015A000B0420BD0B0F1804F08D00F4EB04205D002
:1015B0000E4EB04202D00E4EB04203D124F00304CE
:1015C000144301E044F001041A0724F0F00444EA53
:1015D000126225F00A0301F00A01194382610162D7
:1015E00070BD0000002C01400004004000080040D5
:1015F0000040014010B5036A046A24F0100404623C
:10160000846923F0A00324F4704444EA023243EADC
:1016100001118261016210BD30B5046A056A25F0CE
:1016200010050562856925F4407545EA022222F419
:1016300070454FF6FF7202EA033224F0A0032A43FA
:10164000A02404EA011119438261016230BDFEE762
:101650000907090E002804DB00F1E02080F80014DF
:10166000704700F00F0000F1E02080F8141D704773
:10167000FEF730FFFFF700FEFFF732FDFFF792FDA8
:10168000FEE702030405060708090A0B0C0D0E0FFE
:1016900010100102030405060708090A0B0C0D0EC1
:1016A0000F10000000000000000001020304060704
:1016B00008090000D41600080000002010000000F7
:1016C0005C010008E416000810000020A8060000D5
:1016D0007801000801000000100000000000000078
:0416E0000024F400EE
:0400000508000121CD
:00000001FF
