:020000040800F2
:10000000F0060020BD0100080F150008770C00085D
:100010000D15000805030008D519000800000000B0
:100020000000000000000000000000000B190008A4
:100030000703000800000000431500080D19000820
:10004000D7010008D7010008D7010008D701000830
:10005000D7010008D7010008D7010008590500089A
:100060007D050008D7010008D7010008D701000866
:10007000D7010008D7010008D7010008D701000800
:10008000D7010008D7010008D701000800000000D0
:10009000000000000000000000000000D701000880
:1000A000D7010008D7010008D7010008D7010008D0
:1000B000D7010008AD190008D7010008D7010008D2
:1000C000D7010008D7010008D7010008D7010008B0
:1000D000D7010008D7010008D7010008D7010008A0
:1000E000D7010008D7010008D70100080000000070
:1000F0000000000000000000000000000000000000
:1001000000000000000000000000000000000000EF
:100110000000000000000000D7010008D70100081F
:1001200000F002F800F03AF80AA090E8000C8244CF
:100130008344AAF10107DA4501D100F02FF8AFF2AC
:10014000090EBAE80F0013F0010F18BFFB1A43F0B5
:10015000010318475C2F00007C2F0000103A24BFD9
:1001600078C878C1FAD8520724BF30C830C144BF1C
:1001700004680C607047000000230024002500265E
:10018000103A28BF78C1FBD8520728BF30C148BFFA
:100190000B6070471FB51FBD10B510BD00F07DF896
:1001A0001146FFF7F7FF01F077FC00F09BF803B46E
:1001B000FFF7F2FF03BC00F09FF8000009488047FA
:1001C00009480047FEE7FEE7FEE7FEE7FEE7FEE739
:1001D000FEE7FEE7FEE7FEE704480549054A064B51
:1001E00070470000A919000821010008F000002054
:1001F000F0060020F0020020F002002010B5431CA1
:1002000002E010F8011B71B18107FAD14FF0013201
:1002100002C88C1A8C4314EAC211F9D0C01A0A061B
:1002200003D0C01E10BDC01A10BD0A0401D0801E2C
:1002300010BD0902FCD0401E10BD4FF0000200B5F9
:10024000134694469646203922BFA0E80C50A0E8F9
:100250000C50B1F12001BFF4F7AF090728BFA0E8A7
:100260000C5048BF0CC05DF804EB890028BF40F873
:10027000042B08BF704748BF20F8022B11F0804FB5
:1002800018BF00F8012B7047704770477047000097
:10029000004870478C00002070477546FFF7F8FF54
:1002A000AE4605006946534620F00700854618B063
:1002B00020B5FFF791FFBDE820404FF000064FF05A
:1002C00000074FF000084FF0000B21F00701AC468B
:1002D000ACE8C009ACE8C009ACE8C009ACE8C009AA
:1002E0008D46704710B50446AFF300802046BDE848
:1002F0001040FFF75CBF000001491820ABBEFEE7CD
:1003000026000200FEE77047FEB501F009FA002062
:1003100001F0FCF94FF6FF750223A0220521002011
:10032000009501F0A7F900263548CDE9015641684E
:100330000091036833A211210A2001F0B7FA0223C9
:10034000A02223210020009501F094F9334CCDE93F
:1003500001566068009032A22D210020236801F030
:10036000A5FACDE901566068009030A24121002035
:10037000236801F09BFACDE90156606800902DA238
:1003800055210020236801F091FACDE901566068FB
:1003900000902AA269210020236801F087FA5D23DA
:1003A000022223215F20009501F064F9CDE9015676
:1003B0006068009023A22D216420236801F076FA62
:1003C000CDE90156606800901EA241216420236897
:1003D00001F06CFACDE901566068009019A2552130
:1003E0006420236801F062FACDE90156606800904C
:1003F00016A269216420236801F058FAFEBD0000AE
:10040000000000204C4153455220434F4E54524F60
:100410004C20535441545553000000000800002064
:10042000465245512C6B487A0000000044555459FF
:100430002C2500004C415443480000004C415345DA
:100440005200000057414954000000004F4646004A
:10045000FEB5364F364C002538884FF6FF76E8B1AA
:1004600045F6C051B1FBF0F0F88007F10E0101F044
:10047000FDFACDE90165606800902EA22D2164206F
:10048000236801F013FACDE901656068009007F177
:100490000E022D216420236801F008FA788848B301
:1004A00064214843FF21B0FBF1F0204980B2B880BD
:1004B000083101F0DBFACDE90165606800901DA20A
:1004C00041216420236801F0F1F9CDE901656068FC
:1004D0000090164A412108326420236801F0E6F9B1
:1004E000CDE901656068009014A25521642023685D
:1004F00001F0DCF913480068CDE901654007606848
:10050000009023680CD510A26921642001F0CEF977
:10051000CDE90165606800900CA25521236801E0D7
:100520000CA26921642001F0C1F9FEBD1000002079
:10053000080000202020202020000000444F4E45CD
:1005400000000000080801404F4E20005741495468
:10055000000000004F46460010B500F0F3FF0549CB
:100560000880022000F0FCFB002802D00249022093
:10057000086010BD12000020140401402DE9F0476E
:100580003B4800683C4944073A483C4A3C4B3D4D97
:100590003D4E4FF080484FF000094FF080074FF07C
:1005A000E02C40D5CCF88071BFF34F8FBFF36F8F35
:1005B000046824F002040460086820F00100086068
:1005C000106820F002001060186820F00100186028
:1005D0002988E9B13088D8B1C8F82C0048434FF6D3
:1005E000FF7190FBF1F0C8F83400D8F8140040F027
:1005F0000100C8F81400D8F8200040F00100C8F845
:100600002000D8F8000040F0010000BFC8F800004A
:10061000042000F0A5FB002803D016490420143163
:100620000860BDE8F087A5F80090A6F80090CCF827
:100630000071164D85F80094046844F002040460CB
:10064000186840F001001860106840F00200106067
:10065000086840F001000860D8F8200020F0010090
:10066000C8F82000D8F8000020F00100CEE7000014
:100670000808014000040140000400400C04004050
:1006800020040040120000201000002007E000E0DD
:1006900072B6FEE770B5044600F004F90546601C2A
:1006A00002D004480078044400F0FCF8401BA0424B
:1006B000FAD370BD240000202DE9F84FDFF8B8917F
:1006C0000024A9F1040B23460F2709F1040AABF11A
:1006D000040EC9E00125A5402A40AA427DD1674EFB
:1006E000D1F804C0ACEB0608B44532D014DCBCF140
:1006F000030F3AD009DCBCF1000F2AD0BCF1010F86
:100700001CD0BCF1020F31D11DE0BCF1110F17D08C
:10071000BCF1120F2AD119E0B8F5881F19D006DCF8
:10072000B8F5803F15D0B8F5801F1FD111E0B8F59E
:10073000001F0ED0B8F5041F18D10AE0CB6815E0F1
:10074000CB681B1D12E0CB6808330FE0CB680C337D
:100750000CE08B682BB1012B4FF0080303D04561EF
:1007600004E0042302E0056100E00023FF2A01D831
:10077000064601E000F104064FEA840501D9A5F11F
:100780002005D6F8008007FA05FC28EA0C0803FAD1
:1007900005F548EA0508C6F800804D68ED0062D509
:1007A000374DAE6946F00106AE61AD6924F003062F
:1007B00005F001050095334D06EB050CDCF80850FB
:1007C000A607360F07FA06F825EA0805DFF8B8800D
:1007D000404503D14FF0000817E044E0DFF8AC805B
:1007E000404502D14FF001080FE0DFF8A4804045FA
:1007F00002D14FF0020808E0DFF89880404502D1AE
:100800004FF0030801E04FF0040808FA06F848EA40
:100810000508CCF808804D68D9F80060ED024D4617
:1008200001D5164300E096432E604D68DAF800606B
:10083000AD02554601D5164300E096432E604D6843
:10084000DBF80060AD035D4601D5164300E096433A
:100850002E604D68DEF80060ED03754601D5164345
:1008600000E096432E60641C0D682A46E5407FF444
:1008700031AFBDE8F88F00000804014000001110FE
:10088000001002400000014000080140000C01403F
:1008900000100140001401400AB1016170470904D1
:1008A000FBE700000148806870470000240000203A
:1008B000024881680278114481607047240000205A
:1008C00010B5032000F066F8002000F005F800F0F5
:1008D00023F8002010BD000070B50D4D04464FF404
:1008E0007A712878B1FBF0F00A490968B1FBF0F0A1
:1008F00000F0ADF948B9102C07D200222146501E55
:1009000000F028F800206C6070BD012070BD000070
:1009100024000020300000200C4808B5816941F017
:1009200001018161816901F001010091C16941F01A
:100930008051C161C06900F0805000900448416856
:1009400021F0E06141F00071416008BD00100240FB
:1009500000000140F0B40E4B1B680C46C3F30223A9
:10096000C3F10705042D00D90425191D072901D25B
:10097000002300E0DB1E012606FA05F1491E214096
:1009800099409E40761E16403143F0BC01F05DB8A0
:100990000CED00E0064900F0070208684FF6FF037F
:1009A000184040EA0220034A1043086070470000E4
:1009B0000CED00E00000FA0570B5040009D0606A93
:1009C000002540B125616561A56294F8510040B1F0
:1009D0000CE0012070BD6068B0F5827FF4D0E56165
:1009E000F2E784F85050204600F03AF8022084F8EC
:1009F00051002068016821F040010160A088218930
:100A000000F4827001F404410843A18901F40061FB
:100A10000843217C01F002010843217D01F001011E
:100A20000843218B01F400710843217F01F0380154
:100A3000084394F8201001F080010843218D01F44F
:100A40000051084321680860A069042101EA1040B0
:100A5000216848606565012084F85100002070BD60
:100A600030B585B00024009401940294039400688A
:100A7000174988422AD11748816941F48051816120
:100A8000816901F480510491816941F0080181611B
:100A90008069114D00F00800049028200090022089
:100AA00001900320039069462846FFF705FE1020B9
:100AB000CDE90004694628460294FFF7FDFD07488A
:100AC000416841F0E06141F00101416005B030BD95
:100AD0000030014000100240000C014000000140C5
:100AE0002DE9F84F044690F8500000269846154628
:100AF0008A4601280CD0012784F85070FFF7D2FEF7
:100B0000814694F85100B346012804D002269AE0A9
:100B10000220BDE8F88FBAF1000F6FD0002D6DD024
:100B2000032084F85100C4F854B0C4F830A0A5865E
:100B3000E586C4F838B0A4F83CB0A4F83EB0C4F8D8
:100B400044B0C4F840B0A068B0F5004F09D12068A7
:100B5000016821F0400101602068016841F4804192
:100B6000016020680168490603D4016841F0400132
:100B70000160E068B0F5006F606803D058B3012DE4
:100B800029D049E008B1012D1FD1206B21680088D0
:100B9000C86006E020688168890709D5216B09884B
:100BA000C160206B801C2063E08E401EE0860CE05C
:100BB000FFF778FEA0EB0901414503D3B8F1FF3FF1
:100BC00003D006E0B8F1000F03D0E08E0028E1D199
:100BD00025E0032635E0206B21680078087306E0E5
:100BE0002068816889070AD5216B09780173206B19
:100BF000401C2063E08E401EE0860DE01FE0FFF702
:100C000051FEA0EB0901414503D3B8F1FF3F03D0EA
:100C1000DFE7B8F1000FDCD0E08E0028E0D14A46D3
:100C20004146204600F096FC08B120206065A0688F
:100C300018B92068C16880680090606D08B101260D
:100C400001E084F8517084F850B0304661E710B587
:100C5000401EB0F1807F01D3012010BD4FF0E02491
:100C600060610F21601700F0F0FE0020A0610720F6
:100C70002061002010BDFEE7044908B5CA6902439F
:100C8000CA61C9690140009108BD0000001002401E
:100C9000044908B58A6902438A6189690140009163
:100CA00008BD000000100240044908B58A690243EB
:100CB0008A6189690140009108BD0000001002406E
:100CC00030B5264A002405790168131F85B371B336
:100CD00045798DB1012D17D0022D18D001248379CB
:100CE0002BB31E4908310A1F012B18D0022B20D02C
:100CF000032B22D0012428E015688D43156001687C
:100D00001A680A431A60EAE71D688D4301E01D680E
:100D10000D431D60016813680B431360DFE7036830
:100D20000D689D430D6000681168014311600CE07F
:100D30000DE0036815689D4302E0036815681D43D4
:100D4000156000680A6802430A60204630BD1D68CD
:100D50008D431D60006811688143E7E7040401408A
:100D600003490968884301D000207047012070477B
:100D7000140401400A06930D064A1A44936823EAB4
:100D80001143090C91FAA1F1B1FA81F188400343B2
:100D90009360704700000140F0B50A68C2F30F2568
:100DA00095FAA5F2B2FA82F369E001229A402A424A
:100DB00064D0082B03D240F201129A4006E0A3F15E
:100DC00008024FF00114944044F080624C68082CF3
:100DD0000BD10C69C668170A97FAA7F7B7FA87F715
:100DE00026EA1226BC402643C66092FAA2F700EB20
:100DF0001264B7FA87F74FEA870C0F27266807FABD
:100E00000CF7BE4392FAA2F7D1F804E0B7FA87F7DD
:100E1000BF000EFA07FE46EA0E0626604F68012F55
:100E200001D0092F2AD192FAA2F7B7FA87F74FEA31
:100E3000870C032707FA0CF7BE4392FAA2F7B7FA1A
:100E400087F7D1F808E0BF000EFA07FE92FAA2FC7D
:100E500046EA0E06BCFA8CFC4FEA8C0E4FF0040CEE
:100E600026600CFA0EFC92FAA2F2B2FA82F2CF6875
:100E7000920026EA0C0697403E4326605B1C35FA3A
:100E800003F292D10020F0BD30B591FAA1F400EB4D
:100E90001160B4FA84F4A5000F24AC4091FAA1F1DA
:100EA0000368B1FA81F18900A3438A4013430360C8
:100EB00030BD00000149086070470000300000208C
:100EC000F0B502681D4B1E4C1E4D4FF0804E9842EF
:100ED00005D0704503D0A04201D0A84203D14E688E
:100EE00022F070023243184E184FDFF864C0984267
:100EF0000BD0704509D0A04207D0A84205D0B0421F
:100F000003D0B84201D0604503D1CC6822F44072CE
:100F1000224302608A68C2620A888262984205D0CF
:100F2000B04203D0B84201D0604501D109690163E4
:100F3000416941F0010141610020F0BD002C0140F8
:100F4000000400400008004000400140004401400F
:100F5000004801402DE9F0470023804C804D814E30
:100F6000814F4FF0010C012908D0102943D0B1F571
:100F7000807F7DD0B1F5805F7FD1BFE0016A21F035
:100F800001010162D0F82090D0F804C08169D2F844
:100F9000008021F0730141EA080AD2F8108029F09C
:100FA000020141EA0801D2F8048021F0010141EA7E
:100FB0000801A04205D0A84203D0B04201D0B842F7
:100FC00012D1546921F0080141EA8401946821F0AA
:100FD000040141EA840195692CF480742C43D5699D
:100FE00024F4007444EA450CC0F804C0C0F818A00A
:100FF000D26842633FE0016A21F010010162D0F83B
:101000002090D0F804C08169D2F8008021F4E64134
:1010100041EA082AD2F8108029F0200141EA08119B
:10102000D2F8048021F0100141EA0811A04205D055
:10103000A84203D0B04201D0B84213D1546921F084
:10104000800141EA8411946821F0400141EA841151
:1010500095692CF4806444EA8504D56924F400641D
:1010600044EAC50CC0F804C0C0F818A0D26801E07A
:1010700006E002E0826301629C466046BDE8F087BC
:10108000016A21F480710162D0F82090D0F804C088
:10109000C169D2F8008021F0730141EA080AD2F850
:1010A000108029F4007141EA0821D2F8048021F46B
:1010B000807141EA0821A04205D0A84203D0B04285
:1010C00001D0B84213D1546921F4006141EA84216E
:1010D000946821F4806141EA842195692CF480545C
:1010E00044EA0514D56924F4005444EA451CC0F8C8
:1010F00004C0C0F81CA0D268C263BCE7016A21F436
:1011000080510162D0F820904168D0F81CC0D2F81C
:1011100000802CF4E64C4CEA082AD2F8108029F41E
:10112000005C4CEA083CD2F804802CF4805C4CEA69
:10113000083CA04205D0A84203D0B04201D0B8423A
:1011400004D1946921F4804141EA84114160C0F8DE
:101150001CA0D1680164C0F820C08DE7002C0140BC
:1011600000400140004401400048014008B54FF0F4
:10117000E0210A690092421C00D0401C0A69D20397
:1011800000D5401E0028F9D108BD00002DE9F0412E
:1011900088B000250095142102A80195FFF74DF8AD
:1011A0001020FFF775FD2020FFF772FD0420FFF7E8
:1011B0006FFD0820FFF76CFD3C483B4940F20E32C2
:1011C000426102AA01240226059582E8520002A982
:1011D000FFF7E2FD36480427CDE90207DFF8D480A7
:1011E00002A94046FFF7D8FD4FF470010020FFF739
:1011F000C1FD4FF070610020FFF7BCFD2E490120BA
:10120000FFF7B8FD8DF804408DF8055000968DF875
:1012100006406846FFF754FD8DF804408DF80550F0
:1012200003208DF8060000976846FFF749FDA002ED
:101230008DF8044000908DF805508DF80640684602
:10124000FFF73EFD1D4C042240F202212046FFF72D
:101250001BFE042240F204412046FFF715FE042243
:1012600017494046FFF710FE164C20680022C0F3D5
:101270000220012100F04CF90146072000F0D5FBC7
:10128000072000F0B5FB20680022C0F302201146C1
:1012900000F03EF90146082000F0C7FB082000F0EE
:1012A000A7FB08B0BDE8F0810F0E03040010014059
:1012B000FB00FB04000C01400200000F000801408D
:1012C000040004040CED00E0104810B50E49016064
:1012D0004FF48271416000218160C1604FF400725F
:1012E0000161C0E905121022C0E907214162816253
:1012F0000A21C162FFF760FB002803D0BDE810405F
:10130000FFF7C6B910BD00000030014034000020D6
:10131000F0B593B0142108A8FEF78FFF202168468E
:10132000FEF78BFF14210DA8FEF787FF0120FFF7C2
:10133000A3FC0026ADF820604FF6FF70CDE90960F0
:101340004FF0804408A920460B96FFF7B9FD2068AE
:1013500020F080002060A06844F207018843A0606C
:101360001E48057805F18045183528681B4F08216F
:10137000FF1D3A789140084328606020CDE90006BF
:10138000029603966A46012120460496FFF7E2FD85
:1013900028683A780421914088432860606820F0EA
:1013A00070006060A06820F08000A0600420FFF75B
:1013B0007BFC0B480D9009200E900320CDE90F0611
:1013C0000DA90848FFF7E8FC07484168074A21F4DF
:1013D00000711143416013B0F0BD0000913000086E
:1013E0008000800400080140000001400001000767
:1013F000F0B58BB014216846FEF71FFF142105A835
:10140000FEF71BFF0220FFF737FC0420FFF74CFC20
:1014100044F2400005900420069005A93648FFF7E5
:10142000BBFC36480068C0F30220C0F10701042964
:1014300000D90421021D072A01D2002000E0C01EAD
:10144000012606FA01F2521E02F002018140002537
:1014500008012B4981F800044FF0E0217007C1F822
:101460000001ADF8005045F6BF50CDE90150254CC4
:10147000694620460395FFF723FD206820F0800091
:101480002060A06844F207018843A060606820F0F3
:1014900070006060A06820F08000A0601A480178A9
:1014A0001848183001440A68174803230E3007789B
:1014B000BB409A43FBB29E4032430A600B680678F9
:1014C0000C22B240934305FA06F213430B600B68FB
:1014D0000678F020B040834313430B60216A0A482A
:1014E0000A22153003789A40D8B2914385402943A7
:1014F00021620BB0F0BD0000000801400CED00E0DF
:101500001DE000E00004004091300008FEE7FEE727
:1015100030B500F00703C3F10704042C00D90424FC
:10152000181D072801D2002300E0DB1E012505FA63
:1015300004F0401E084098409D406D1E1540284311
:1015400030BD704702480068C0F3072070470000B4
:10155000080C014038B50B46009204460022802159
:1015600000F008F8002804D0606D40F020006065AD
:10157000032038BD2DE9F8431E46914688460446AF
:10158000089DFFF78FF9401B351AFFF78BF90746C7
:1015900025480068C0F3CB30684338E0701C37D072
:1015A000FFF780F9C01BA84203D215B1009860B3C1
:1015B0002CE02068416821F0E00141606068B0F5EE
:1015C000827F0BD1A068B0F5004F02D0B0F5806FDC
:1015D00004D12068016821F040010160A06AB0F5E3
:1015E000005F09D12068016821F400510160206882
:1015F000016841F400510160012084F8510000208D
:1016000084F850000320BDE8F8830025401E0090B8
:101610002068816838EA010004D000214945BDD125
:101620000020F0E70121F9E7300000202DE9F0412A
:1016300010F8015B044617E0207800F00FF960789D
:10164000A41C00F0800730F0800604D0314620460C
:1016500000F016F934443FB114F8010BFF2801D112
:101660004FF4FA70FFF716F86D1EEDB2E4D2BDE844
:10167000F08100002DE9F8431F46DDF82080144674
:101680000D460646A0283BD2802D39D23019401E87
:10169000A02802DBC6F1A00084B2E819401E802811
:1016A00002DBC5F1800087B200F05EF8E819401E49
:1016B000C3B23019401EC2B2E9B2F0B200F05CF819
:1016C0004FEA18208DF800008DF8018001220821D2
:1016D0000C48FFF7E1F84FF0FF360DE0254607E034
:1016E0003346022269460848FFF7FAF96D1EADB28B
:1016F000002DF5D17F1EBFB2002FEFD100F05EF8B4
:10170000BDE8F883001001403400002008B5002136
:1017100000908023A0220846FFF7ACFF08BD000020
:1017200010B500F021F80E4C002202212046FFF7F0
:10173000B3F80520FEF7AEFF012202212046FFF795
:10174000ABF80848FFF772FF06483B30FFF76EFF23
:1017500004484830FFF76AFFBDE8104000F02EB89B
:10176000001001401E300008002204210148FFF74C
:1017700093B8000000100140F8B507461C46154616
:101780000E462A2000F06AF8002000908DF80170C3
:101790008DF803500421684600F072F82B2000F009
:1017A0005DF88DF801608DF803400421684600F073
:1017B00067F82C2000F052F8F8BD00000122042147
:1017C0000148FFF769B80000001001400FB42DE98F
:1017D000FF5F4A1EC3F307263244D4B2DFB2421E73
:1017E000DDE913A93A44D2B2C9B2C0B22346FFF729
:1017F000C3FF00252CE010981299203800FB0650FA
:10180000002431F810804FEA1A2002900AF0FF00FD
:1018100001904FEA192009F0FF0B009015E000BF7E
:1018200008FA04F0000406D502988DF80C0001981F
:101830008DF80D0004E000988DF80C008DF80DB0C7
:10184000022103A800F01CF8641CA742E8D86D1C14
:10185000AE42D0D8BDE8FF1F5DF814FB01B50022F1
:1018600008210548FFF718F84FF0FF3301226946B9
:101870000248FFF735F908BD001001403400002090
:1018800070B50D460446012208210648FFF704F80A
:10189000AAB22146BDE870404FF0FF330248FFF77F
:1018A0001FB9000000100140340000202DE9FE4F58
:1018B0009846DDE90DA914460E460546DDF830B020
:1018C000FFF752FF08F0FF0718E07819A02809D3A6
:1018D000C8F3072081198EB200253044802810D229
:1018E000202A0AD0CDF800B0CDE901A943463146FF
:1018F0002846FFF76BFF781985B2641C2278002A0E
:10190000E3D1BDE8FE4FFFF759BF7047FEF7D0BFE8
:10191000234810B5016821F0F80141F08001016011
:10192000016841F0010101600168C1F34001002933
:10193000FAD0416821F47C1242F480120021426006
:10194000C26A61F30302C262016841F08071016002
:101950000168C1F340610029FAD0416821F0F0012B
:101960004160416821F4E0614160416821F46051C7
:101970004160416821F0030141F00201416041688A
:1019800001F00C010829FAD10648FFF793FA00206C
:10199000FEF7A2FF002801D072B6FEE710BD0000DE
:1019A0000010024000366E017047000007480068D2
:1019B0000749088005482038016841F001010160AD
:1019C000001F016821F002010160704734040040EB
:1019D00010000020FEE7002809DB00F01F020121B3
:1019E00091404009800000F1E020C0F800117047EC
:1019F000002809DB00F01F0201219140400980000E
:101A000000F1E020C0F8001170470907090E002816
:101A100004DB00F1E02080F80014704700F00F00B4
:101A200000F1E02080F8141D70470907090E002816
:101A300004DB00F1E02080F80014704700F00F0094
:101A400000F1E02080F8141D70470907090E0028F6
:101A500004DB00F1E02080F80014704700F00F0074
:101A600000F1E02080F8141D7047000030B400221F
:101A70005FF00A03B0FBF3F403FB1404B0FBF3F0D4
:101A800030348C54521C92B20028F3D1885430BCAC
:101A9000084600F04DB80000FEF712FFFFF738FFD0
:101AA000FFF774FBFFF7A4FCFFF732FCFFF70CFC19
:101AB0004FF47A70FFF75AFB1D20FFF78CFF0221CD
:101AC0001D20FFF7A2FF1848016841F001010160E5
:101AD00015481438016841F00201016012482038AD
:101AE000016841F0010101600720FFF774FF012147
:101AF0000720FFF78AFF0D4C206840F002002060AD
:101B00000820FFF768FF00210820FFF77EFF20680C
:101B100040F004002060FEF7F7FB00BFFEF798FCE2
:101B2000C820FFF723FBF9E7200400400004014030
:101B300070B505460024FEF761FB401E81B207E048
:101B4000285D6A5C2A55641C6854491EA4B289B297
:101B50008C42F5D370BD00000000000000000000C2
:101B60000000000000000000000000100010001045
:101B700000100010001000000010000000000028FD
:101B80000028002800000000000000000000000005
:101B9000000000240024007C00240048007C004851
:101BA00000480000000000380054005000380014C5
:101BB0000054005400380010000000200054005869
:101BC000003000280054001400080000000000103D
:101BD00000280028001000340048004800340000AD
:101BE00000000010001000100000000000000000C5
:101BF000000000000000000800100020002000206D
:101C00000020002000200010000800200010000824
:101C1000000800080008000800080010002000105C
:101C20000038001000280000000000000000000044
:101C300000000000000000100010007C00100010E8
:101C40000000000000000000000000000000000094
:101C50000000000000100010001000000000000054
:101C6000000000000038000000000000000000003C
:101C70000000000000000000000000000010000054
:101C800000000008000800100010001000100020E4
:101C900000200000000000380044004400540044CC
:101CA00000440044003800000000001000300050E4
:101CB000001000100010001000100000000000389C
:101CC000004400440004000800100020007C0000D4
:101CD0000000003800440004001800040004004420
:101CE0000038000000000008001800280028004804
:101CF000007C0008000800000000007C004000405C
:101D0000007800040004004400380000000000389F
:101D100000440040007800440044004400380000C3
:101D20000000007C000400080010001000200020CB
:101D30000020000000000038004400440038004447
:101D40000044004400380000000000380044004413
:101D50000044003C00040044003800000000000083
:101D60000000001000000000000000000010000053
:101D70000000000000000000001000000000000053
:101D800000100010001000000000000C00300040A7
:101D90000030000C00000000000000000000000007
:101DA000007C0000007C000000000000000000003B
:101DB000000000600018000400180060000000002F
:101DC000000000380044000400080010001000006B
:101DD00000100000000000380044004C0054005C7B
:101DE00000400040003800000000001000280028DB
:101DF00000280028007C0044004400000000007817
:101E0000004400440078004400440044007800008E
:101E10000000003800440040004000400040004402
:101E200000380000000000700048004400440044F6
:101E300000440048007000000000007C00400040AA
:101E4000007C004000400040007C00000000007C5E
:101E5000004000400078004000400040004000008A
:101E600000000038004400400040005C0044004492
:101E7000003800000000004400440044007C00449E
:101E8000004400440044000000000038001000102E
:101E900000100010001000100038000000000004C6
:101EA00000040004000400040004004400380000A2
:101EB0000000004400480050006000500048004806
:101EC000004400000000004000400040004000408E
:101ED00000400040007C000000000044006C006CEA
:101EE000005400440044004400440000000000444A
:101EF0000064006400540054004C004C0044000096
:101F00000000003800440044004400440044004401
:101F100000380000000000780044004400440078CD
:101F20000040004000400000000000380044004431
:101F300000440044004400540038000400000078CD
:101F40000044004400440078004800480044000079
:101F50000000003800440040003000080004004445
:101F6000003800000000007C00100010001000107D
:101F70000010001000100000000000440044004465
:101F800000440044004400440038000000000044C5
:101F90000044004400280028002800100010000021
:101FA000000000440044005400540054006C002819
:101FB0000028000000000044002800280010001045
:101FC00000280028004400000000004400440028CD
:101FD0000028001000100010001000000000007C1D
:101FE000000400080010001000200040007C0000E9
:101FF0000000001800100010001000100010001069
:102000000010001000180020002000100010001028
:102010000010000800080000000000300010001050
:102020000010001000100010001000100030001010
:10203000002800280044000000000000000000000C
:102040000000000000000000000000000000000090
:102050000000000000FE0020001000000000000052
:102060000000000000000000000000000000003838
:102070000044003C0044004C0034000000000040DC
:102080000040005800640044004400640058000010
:102090000000000000000038004400400040004400
:1020A000003800000000000400040034004C00442C
:1020B0000044004C00340000000000000000003824
:1020C0000044007C00400044003800000000000C88
:1020D0000010007C00100010001000100010000024
:1020E0000000000000000034004C00440044004C9C
:1020F00000340004007800400040005800640044B0
:102100000044004400440000000000100000007083
:10211000001000100010001000100000000000105F
:1021200000000070001000100010001000100010DF
:1021300000E00040004000480050006000500048AF
:10214000004400000000007000100010001000109B
:1021500000100010001000000000000000000078D7
:1021600000540054005400540054000000000000CB
:102170000000005800640044004400440044000093
:102180000000000000000038004400440044004407
:102190000038000000000000000000580064004407
:1021A000004400640058004000400000000000347B
:1021B000004C00440044004C0034000400040000C3
:1021C0000000005800640040004000400040000053
:1021D0000000000000000038004400300008004407
:1021E00000380000000000200020007800200020BF
:1021F0000020002000180000000000000000004443
:10220000004400440044004C003400000000000082
:1022100000000044004400280028002800100000AE
:10222000000000000000005400540054006C00281E
:1022300000280000000000000000004400280010FA
:1022400000100028004400000000000000000044CE
:10225000004400280028001000100010006000005A
:102260000000007C0008001000200040007C0000FE
:1022700000000018001000100010002000200010C6
:1022800000100010001800100010001000100010C6
:10229000001000100010001000100030001000109E
:1022A00000100008000800100010001000300000AE
:1022B000000000000074004C00000000000000005E
:1022C000000000000000000000000000000000000E
:1022D00000000000000000000000000000000000FE
:1022E0000000000000000000000C000C000C000CBE
:1022F000000C000C000C000C000C000C000C00008A
:10230000000C000C0000000000000000001B001B7F
:10231000001B001B001B000000000000000000006C
:1023200000000000000000000000000000000000AD
:102330008019801980198019C07FC07F80190033EF
:10234000C07FC07F00330033003300330000000043
:1023500000000000001E003F807580650074003C96
:10236000001E00078005806580658075003F001EA7
:102370000004000400000000007000D840D8C0D85D
:1023800080D900730006000C801BC036C066C046B2
:10239000C00680030000000000000000001E003F97
:1023A000003300330033001E000CC03CC066806365
:1023B00080618063C03E801C0000000000000000BF
:1023C000000C000C000C000C000C000000000000D1
:1023D00000000000000000000000000000000000FD
:1023E0000000800000010003000600060004000C4D
:1023F000000C000C000C000C000C00040006000691
:10240000000300018000002000100018000C000CE8
:102410000004000600060006000600060006000490
:10242000000C000C0018001000200000000C002D13
:10243000003F001E0033000000000000000000000C
:10244000000000000000000000000000000000008C
:1024500000000000000C000C000C000CC0FFC0FFCE
:10246000000C000C000C000C00000000000000003C
:10247000000000000000000000000000000000005C
:10248000000000000000000000000000000C000C34
:10249000000400040008000000000000000000002C
:1024A0000000000000000000001E001E00000000F0
:1024B000000000000000000000000000000000001C
:1024C000000000000000000000000000000000000C
:1024D00000000000000C000C0000000000000000E4
:1024E0000003000300030006000600060006000CBF
:1024F000000C000C000C0018001800180000000070
:1025000000000000001E003F003380618061806198
:10251000806D806D8061806180610033003F001EAE
:1025200000000000000000000006000E001E003643
:10253000002600060006000600060006000600064B
:10254000000600060000000000000000001E003F22
:10255000807380618061800100030006000C001818
:1025600000300060807F807F0000000000000000DD
:10257000001C003E006300630003000E000E000319
:102580008001800180618073003F001E0000000018
:10259000000000000006000E000E001E001E0016C7
:1025A000003600360066807F807F00060006000649
:1025B0000000000000000000007F007F006000605D
:1025C0000060006E007F8063800180018061807305
:1025D000003F001E0000000000000000001E003F41
:1025E000803380610060006E007F80738061806155
:1025F00080618033003F001E0000000000000000EA
:10260000807F807F80010003000300060006000C2D
:10261000000C000C00080018001800180000000052
:1026200000000000001E003F806380618061002187
:10263000001E003F8061806180618061003F001E5C
:102640000000000000000000001E003F00738061D9
:10265000806180618073803F801D80018061007394
:10266000003F001E0000000000000000000000000D
:1026700000000000000C000C000000000000000042
:1026800000000000000C000C000000000000000032
:1026900000000000000000000000000C000C000022
:1026A0000000000000000000000C000C000400040A
:1026B0000008000000000000000080008003000E01
:1026C000003800600038000E800380000000000029
:1026D00000000000000000000000000000000000FA
:1026E000807F807F00000000807F807F00000000EE
:1026F00000000000000000000000000000000000DA
:10270000000000400070001C000780010007001C52
:102710000070004000000000000000000000000009
:10272000001F803FC071C060C000C001800300076F
:10273000000E000C000C0000000C000C000000005B
:1027400000000000001E003F803180718063806FB8
:10275000806D806D806F806700600032003E001CDD
:102760000000000000000000000E000E001B001B17
:10277000001B001B80318031803F803F8031C06072
:10278000C060C0600000000000000000007C007E0F
:102790000063006300630063007E007E006380616D
:1027A00080618063007F007E000000000000000068
:1027B000001E003F803180610060006000600060AA
:1027C0000060006080618031003F001E000000005A
:1027D00000000000007C007F0063806380618061F6
:1027E000806180618061806100630063007E007CA5
:1027F0000000000000000000807F807F006000601B
:1028000000600060007F007F00600060006000608A
:10281000807F807F0000000000000000807F807FBC
:102820000060006000600060007F007F006000606A
:102830000060006000600060000000000000000018
:10284000001E003F80318061006000600060806396
:102850008063806180618031803F001E0000000045
:102860000000000080618061806180618061806122
:10287000807F807F80618061806180618061806114
:102880000000000000000000003F003F000C000CB2
:10289000000C000C000C000C000C000C000C000CD8
:1028A000003F003F000000000000000080018001A8
:1028B00080018001800180018001800180018061B0
:1028C00080618073003F001E0000000000000000D7
:1028D000C0608061006300660066006C0078007C68
:1028E00000660066006380618061C06000000000D7
:1028F0000000000000600060006000600060006098
:10290000006000600060006000600060807F807F89
:102910000000000000000000C071C071C07BC07AE0
:10292000C06AC06AC06EC064C060C060C060C06081
:10293000C060C06000000000000000008071807175
:10294000807980798079806D806D806D8065806709
:1029500080678067806380630000000000000000E3
:10296000001E003F00338061806180618061806172
:102970008061806180610033003F001E0000000024
:1029800000000000007E007F8063806180618061C4
:102990008063007F007E0060006000600060006077
:1029A0000000000000000000001E003F00338061B6
:1029B00080618061806180618061806580670033B3
:1029C000803F401E0000000000000000007E007FED
:1029D0008063806180618063007F007E00660063A9
:1029E000006380618061C0600000000000000000A2
:1029F000000E001F8031803100300038001E0007BB
:102A00008003806180618031003F001E0000000073
:102A100000000000C0FFC0FF000C000C000C000C08
:102A2000000C000C000C000C000C000C000C000C46
:102A30000000000000000000806180618061806112
:102A4000806180618061806180618061806180736C
:102A5000003F001E0000000000000000C060C060D9
:102A6000C060803180318031001B001B001B001BC7
:102A7000000E000E000E0004000000000000000028
:102A8000C0C0C0C0C0C0C0C0C0C0C0CC804C804CA2
:102A9000805E8052805280738061806100000000FF
:102AA00000000000C0C0806080610033003B001E59
:102AB000000C000C001E001F003B80718061C0C034
:102AC0000000000000000000C0C080618061003391
:102AD0000033001E001E000C000C000C000C000C4B
:102AE000000C000C0000000000000000803F803F50
:102AF0008001000300030006000C000C0018001801
:102B000000300060807F807F000000000000000F28
:102B1000000F000C000C000C000C000C000C000C52
:102B2000000C000C000C000C000C000C000C000F42
:102B3000000F0000001800180018000C000C000C1A
:102B4000000C000600060006000600030003000358
:102B5000000000000000001E001E00060006000627
:102B60000006000600060006000600060006000635
:102B7000000600060006001E001E0000000C000CEF
:102B8000001E0012003300338061806100000000ED
:102B90000000000000000000000000000000000035
:102BA0000000000000000000000000000000000025
:102BB0000000000000000000000000000000E0FF36
:102BC0000000000000380018000C000000000000A9
:102BD00000000000000000000000000000000000F5
:102BE00000000000000000000000000000000000E5
:102BF000001F803F80618001801F803F8061806373
:102C0000807FC0380000000000000000006000600D
:102C100000600060006E007F807380618061806171
:102C200080618073007F006E0000000000000000E3
:102C30000000000000000000001E003F8073806163
:102C40000060006080618073003F001E0000000093
:102C5000000000008001800180018001801D803F14
:102C6000807380618061806180618073803F801D9E
:102C70000000000000000000000000000000000054
:102C8000001E003F00738061807F807F0060807144
:102C9000003F001E0000000000000000C007C00F41
:102CA000000C000C807F807F000C000C000C000CDE
:102CB000000C000C000C000C0000000000000000E4
:102CC000000000000000801D803F807380618061F3
:102CD000806180618073803F801D80018063007F00
:102CE000003E00000060006000600060006F807FB8
:102CF00080718061806180618061806180618061BC
:102D000000000000000000000006000600000000B7
:102D1000003E003E00060006000600060006000613
:102D2000000600060000000000000006000600008B
:102D30000000003E003E00060006000600060006F9
:102D400000060006000600060046007E003C00006B
:102D50000060006000600060806100630066006CDD
:102D6000007C0076006300638061C06000000000AA
:102D700000000000003E003E0006000600060006BF
:102D80000006000600060006000600060006000613
:102D90000000000000000000000000000000000033
:102DA00080DDC0FFC0CEC0CCC0CCC0CCC0CCC0CCBD
:102DB000C0CCC0CC000000000000000000000000FB
:102DC00000000000006F807F807180618061806101
:102DD000806180618061806100000000000000006F
:102DE0000000000000000000001E003F80738061B2
:102DF0008061806180618073003F001E00000000E0
:102E000000000000000000000000006E007F8073E2
:102E100080618061806180618073007F006E0060EE
:102E20000060006000600000000000000000801DE5
:102E3000803F807380618061806180618073803FAA
:102E4000801D8001800180018001000000000000E1
:102E5000000000000067803F003900300030003083
:102E600000300030003000300000000000000000A2
:102E70000000000000000000001E803F8061006034
:102E8000007F803F80018061007F001E0000000005
:102E9000000000000000000800180018007F007FFC
:102EA000001800180018001800180018801F800F64
:102EB0000000000000000000000000000000000012
:102EC00080618061806180618061806180618063F8
:102ED000807F803D00000000000000000000000036
:102EE00000000000C060803180318031001B001B79
:102EF000001B000E000E0006000000000000000095
:102F0000000000000000000080DD80DD80DD005555
:102F100000550055007700770022002200000000D5
:102F2000000000000000000000000000806100338D
:102F30000033001E000C000C001E003300338061C3
:102F400000000000000000000000000000008061A0
:102F50008061803100330033001B001B001B000E1A
:102F6000000E000E001C007C00700000000000003D
:102F700000000000C07FC07F800100030006000C3D
:102F800000180030C07FC07F0000000000008003F8
:102F9000800700060006000600060006000E001C62
:102FA000001C000E00060006000600060006800752
:102FB0008003000600060006000600060006000664
:102FC00000060006000600060006000600060006D1
:102FD0000006000600060038003C000C000C000C47
:102FE000000C000C000E00070007000E000C000C87
:102FF000000C000C000C003C003800000000000039
:1030000000000000000000008038807F00470000C2
:1030100000000000000000000000000000000F01A0
:1030200080961180FFB103012C2DB203012C2DB32A
:1030300006012C2D012C2DB40107C003A20284C16E
:1030400001C5C2020A00C3028A2AC4028AEEC5016F
:103050000E20003601603A0105022A040000007FBC
:103060002B040000007F04E010021C0712373229F5
:103070002D29252B3900010310E110031D07062E11
:103080002C292D2E2E373F0000021013800A298094
:1030900064000000000404040000080000000800B0
:1030A00000080000000800020406080A0C000000E6
:1030B000D030000800000020340000005C0100084F
:1030C0000431000834000020BC060000780100082C
:1030D000070A0000561B00080B120000C22200085D
:1030E00000000000000000000000000000000000E0
:1030F00000000000010000001000000000000000BF
:043100000024F400B3
:0400000508000121CD
:00000001FF
