:020000040800F2
:1000000060070020BD010008D31A00087718000817
:10001000D11A000899030008331E000800000000F0
:10002000000000000000000000000000D71A0008D7
:100030009B03000800000000D51A0008D91A000828
:10004000D7010008D7010008D7010008D701000830
:10005000D7010008D70100089D030008A30300088A
:10006000A9030008AF030008D7010008D701000862
:10007000D7010008D7010008D7010008D701000800
:10008000D7010008D7010008D701000800000000D0
:10009000000000000000000000000000D701000880
:1000A000D7010008D7010008D7010008D7010008D0
:1000B000451B0008511B0008D7010008D7010008A4
:1000C000D7010008D7010008D7010008D7010008B0
:1000D000D7010008D7010008D7010008D7010008A0
:1000E000D7010008D7010008D70100080000000070
:1000F0000000000000000000000000000000000000
:1001000000000000000000000000000000000000EF
:100110000000000000000000D7010008D70100081F
:1001200000F002F800F03AF80AA090E8000C8244CF
:100130008344AAF10107DA4501D100F02FF8AFF2AC
:10014000090EBAE80F0013F0010F18BFFB1A43F0B5
:1001500001031847681E0000881E0000103A24BFE3
:1001600078C878C1FAD8520724BF30C830C144BF1C
:1001700004680C607047000000230024002500265E
:10018000103A28BF78C1FBD8520728BF30C148BFFA
:100190000B6070471FB51FBD10B510BD00F058F8BB
:1001A0001146FFF7F7FF01F055FE00F076F803B4B3
:1001B000FFF7F2FF03BC00F07DF80000094880471C
:1001C00009480047FEE7FEE7FEE7FEE7FEE7FEE739
:1001D000FEE7FEE7FEE7FEE704480549054A064B51
:1001E00070470000431B0008210100086001002047
:1001F0006007002060030020600300204FF0000231
:1002000000B5134694469646203922BFA0E80C500C
:10021000A0E80C50B1F12001BFF4F7AF090728BFE7
:10022000A0E80C5048BF0CC05DF804EB890028BF63
:1002300040F8042B08BF704748BF20F8022B11F08C
:10024000804F18BF00F8012B704770477047704708
:10025000754600F02BF8AE4605006946534620F07F
:100260000700854618B020B5FFF7B6FFBDE820406F
:100270004FF000064FF000074FF000084FF0000B62
:1002800021F00701AC46ACE8C009ACE8C009ACE815
:10029000C009ACE8C0098D46704710B50446AFF3FD
:1002A00000802046BDE81040FFF781BF004870473E
:1002B000FC00002001491820ABBEFEE7260002002A
:1002C0007047000070B5044600688168C943C907DB
:1002D00017D1816821F00101816000F03FFC0546E3
:1002E0000AE000BF00F03AFC401B022804D9206855
:1002F0008068C043C00706D020688068C043C0073C
:10030000F0D0002070BDA06A40F01000A062E06A4A
:1003100040F00100E062012070BD0000F8B5002649
:100320000446009600688168C943C9072DD08168DA
:1003300041F001018160164816490068B0FBF1F0F8
:1003400000E0401E00900028FBD100F007FC0546AD
:1003500016E000BF00F002FC401B022810D9206804
:100360008068C043C0070BD0A06A40F01000A062B4
:10037000E06A40F00100E06284F824600120F8BDEA
:1003800020688068C043C007E4D10020F8BD0000A9
:100390003800002040420F00FEE77047012000F0C7
:1003A000DBBA022000F0D8BA042000F0D5BA082049
:1003B00000F0D2BA72B6FEE7F8B500250446009503
:1003C00090F8240001280BD0012084F82400204656
:1003D000FFF778FF2046FFF7A1FF060002D050E0AC
:1003E0000220F8BDA06A20F4885040F00200A0620C
:1003F000022000F05BFC25490968B1FBF0F04000E9
:1004000000E0401E00900028FBD12068816841F088
:100410000801816000F0A2FB074608E000F09EFBA7
:10042000C01B0A2803D920688068000715D42068FB
:1004300080680007F2D42068816841F0040181607F
:1004400000F08CFB074612E000F088FBC01B0A2876
:100450000DD920688068400709D5A06A20F0020005
:1004600040F01000A06284F824500120F8BD2068FC
:1004700080684007E8D4A06A20F0020040F0010044
:10048000A06284F824503046F8BD000038000020F7
:10049000F8B50024009490F824202546012A12D0B3
:1004A000012280F824204A681F23072A0DD20668FB
:1004B000776B521E02EB820293409F430B6893407E
:1004C0001F43776319E00220F8BD06680D2A0AD29F
:1004D000376BD21F02EB820293409F430B6893401D
:1004E0001F43376309E0F76A0D3A02EB820293403B
:1004F0009F430B6893401F43F7620A68072306680F
:100500000A2A0AD3F7680A3A02EB420293409F4351
:100510008B6893401F43F76008E0376902EB4202A3
:1005200093409F438B6893401F4337610A68102AAA
:1005300001D0112A20D1124B02689A4217D1936838
:100540001B0219D4936843F40003936009681029CF
:1005500012D10C490C4A0968B1FBF2F101EB81019F
:10056000490000E0491E00910029FBD104E0816AA6
:1005700041F020018162012480F824502046F8BD1A
:10058000002401403800002040420F002DE9F041D6
:100590004FF0000704003D467ED0A06A002628B92F
:1005A000E66284F82460204600F07EF82046FFF7DB
:1005B00089FEA16AC90600D420B1A06A40F01000EB
:1005C000A06269E0A16A21F4885141F00201A162B0
:1005D0006268E169237B0A4347EA43010A43A16851
:1005E0004FF48077B94209D0012907D05FF00001AC
:1005F00094F814C0BCF1010F02D00AE03946F7E7C5
:10060000F3B1A36A43F02003A362E36A43F001035A
:10061000E3622368D3F804C02CF4694C4CEA010C63
:10062000C3F804C021688B68DFF870C003EA0C03CC
:1006300013438B60A168B9420BD0012909D00CE0AB
:10064000DFF85CC0A3690CEB43330B4343F4006158
:10065000DFE7218A0D05A5F580152168CB6A23F413
:1006600070032B43CB62216889680E4B194091427D
:1006700008D1E662A16A21F0020141F00101A16204
:10068000BDE8F081A06A20F0020040F01000A062F6
:10069000E06A40F00100E0620120F1E7FDF7E1FFD0
:1006A00000E0FFFFFE0E1FFF00B585B000210091A6
:1006B00001910291039100680E49884218D10E48B9
:1006C000816941F400718161816901F400710491D3
:1006D000816941F0040181618069694600F004008C
:1006E00004902020009003200190044800F040F97D
:1006F00005B000BD00240140001002400008014088
:1007000010B5044690F8240001280DD0012084F88B
:1007100024002046FFF702FE01004FF0000005D044
:1007200084F82400084610BD022010BDA26A40F2E1
:1007300001239A4342F48072A262A26A22F48012D8
:10074000A262226853685B0505D5A36A23F40053AF
:1007500043F48053A362A36ADB0404D5E36A23F065
:100760000603E36200E0E06284F824006FF0020018
:10077000106020688268C2F34242072A826803D070
:1007800042F480128260CDE742F4A002FAE710B58D
:10079000044690F82400012807D0012084F82400A2
:1007A0002046FFF78FFD10B107E0022010BDA16ABF
:1007B00021F4885141F00101A162002184F8241044
:1007C00010BD000070B5044600F0C8F90546601C75
:1007D00002D004480078044400F0C0F9401BA04255
:1007E000FAD370BD2C0000202DE9F0414FF0804479
:1007F0000546206A20F001002062062000F006FA7B
:10080000514E306820F001003060072000F0FEF902
:10081000306820F002003060082000F0F7F93068FE
:1008200020F004003060092000F0F0F9306820F07A
:1008300008003060444845491430454B00260127E4
:10084000444A012D27D0022D4AD0042D5BD0082D1B
:100850001FD1056845F00805056010780128C868B3
:1008600064D040F40070C860C86820F48070C8602C
:10087000C86840F48060C86017700820D080936218
:100880001081E06840F00100E060206840F0010065
:100890002060BDE8F081056845F00105056010782D
:1008A0000128C8680FD040F40070C860C86820F400
:1008B0008070C860C86840F48060C8601770D780D6
:1008C00093621681DDE740F48070C860C86820F448
:1008D0000070C860C86820F48060C8601670EEE7D9
:1008E000056845F002050560C86840F48070C8607E
:1008F000C86820F40070C8601670C86820F4806072
:10090000C8600220BAE7056845F004050560C868BC
:1009100040F40070C860C86820F48070C860177028
:10092000C86840F48060C8600420A7E740F4807085
:10093000C860C86820F40070C860C86820F480608F
:10094000C860167099E700000004014000100140E3
:100950000008014000000020044910B50A68024266
:1009600002D00860FFF740FF10BD000014040140F2
:100970002DE9F84FDFF8B8910024A9F1040B2346C4
:100980000F2709F1040AABF1040EC9E00125A540C7
:100990002A40AA427DD1674ED1F804C0ACEB0608CC
:1009A000B44532D014DCBCF1030F3AD009DCBCF101
:1009B000000F2AD0BCF1010F1CD0BCF1020F31D1C5
:1009C0001DE0BCF1110F17D0BCF1120F2AD119E0B4
:1009D000B8F5881F19D006DCB8F5803F15D0B8F5FA
:1009E000801F1FD111E0B8F5001F0ED0B8F5041F0D
:1009F00018D10AE0CB6815E0CB681B1D12E0CB686C
:100A000008330FE0CB680C330CE08B682BB1012B63
:100A10004FF0080303D0456104E0042302E00561C0
:100A200000E00023FF2A01D8064601E000F1040699
:100A30004FEA840501D9A5F12005D6F8008007FA10
:100A400005FC28EA0C0803FA05F548EA0508C6F88B
:100A500000804D68ED0062D5374DAE6946F0010665
:100A6000AE61AD6924F0030605F001050095334D34
:100A700006EB050CDCF80850A607360F07FA06F857
:100A800025EA0805DFF8B880404503D14FF000089B
:100A900017E044E0DFF8AC80404502D14FF0010898
:100AA0000FE0DFF8A480404502D14FF0020808E0D3
:100AB000DFF89880404502D14FF0030801E04FF085
:100AC000040808FA06F848EA0508CCF808804D68DA
:100AD000D9F80060ED024D4601D5164300E096437B
:100AE0002E604D68DAF80060AD02554601D5164318
:100AF00000E096432E604D68DBF80060AD035D4674
:100B000001D5164300E096432E604D68DEF8006084
:100B1000ED03754601D5164300E096432E60641C34
:100B20000D682A46E5407FF431AFBDE8F88F00003C
:100B300008040140000011100010024000000140B4
:100B400000080140000C0140001001400014014069
:100B50000AB1016170470904FBE7000001488068A1
:100B6000704700002C000020024881680278114480
:100B7000816070472C00002010B5032000F084F83D
:100B8000002000F005F800F023F8002010BD000060
:100B900070B50D4D04464FF47A712878B1FBF0F032
:100BA0000A490968B1FBF0F000F056FB48B9102C77
:100BB00007D200222146501E00F046F800206C604B
:100BC00070BD012070BD00002C0000203800002006
:100BD0000C4808B5816941F001018161816901F02A
:100BE00001010091C16941F08051C161C06900F00B
:100BF000805000900448416821F0E06141F00071AC
:100C0000416008BD001002400000014000280DDBDB
:100C100000F01F02012191404009800000F1E02016
:100C2000C0F88011BFF34F8FBFF36F8F704700285C
:100C300009DB00F01F02012191404009800000F112
:100C4000E020C0F800117047F0B40E4B1B680C4652
:100C5000C3F30223C3F10705042D00D90425191D90
:100C6000072901D2002300E0DB1E012606FA05F168
:100C7000491E214099409E40761E16403143F0BCEB
:100C800001F0D8B80CED00E0064900F00702086852
:100C90004FF6FF03184040EA0220034A1043086061
:100CA000704700000CED00E00000FA0510B50146A9
:100CB0000020144C01290BD0022908D100F006F9BC
:100CC0006168C1F38131491C4900B0FBF1F010BDEE
:100CD000226AC2F30121012903D1920701D5C80379
:100CE00010BD022905D1626A920702D549F640403B
:100CF00010BD0329FCD121688903F9D54FF22440A6
:100D000010BD0000001002402DE9F84305460078B0
:100D1000314CC00754D0E0690026C00008D4E06917
:100D200040F08050E061E069012600F080500090C2
:100D30002A480168C90512D40168804641F48071CF
:100D40000160FFF70BFF074605E000BFFFF706FF56
:100D5000C01B642823D8D8F80000C005F6D5206A47
:100D600010F4407021D0A98801F4407181421CD058
:100D7000206A1B49012220F440700A6000220A60A8
:100D80002062C00711D0FFF7E9FE074641F288381C
:100D900008E000BFFFF7E2FEC11B414502D9032076
:100DA000BDE8F883206A8007F4D5206A696820F4DA
:100DB0004070084320621EB1E06920F08050E0617D
:100DC0002878800705D56068A96820F4404008436A
:100DD00060600020E4E70000001002400070004066
:100DE000400442422DE9F041050027D02868334CE9
:100DF000810712D5400703D5606840F4E060606069
:100E00002878000703D5606840F46050606060682F
:100E1000A96820F0F000084360602878C00729D056
:100E20006868012804D02168022804D0890703E0FB
:100E30002168890300E08901002902DB0120BDE867
:100E4000F081616821F0030101436160FFF786FED4
:100E5000064641F2883706E0FFF780FE801BB84265
:100E600001D90320EBE76068696800F00C00B0EB83
:100E7000810FF1D12878400705D56068E96820F432
:100E8000E060084360602878000706D5606829693B
:100E900020F4605040EAC100606000F027F861680B
:100EA000074AC1F30311515CC8400649086006486F
:100EB0000068FFF76DFE0020C1E70000001002404F
:100EC000A41F000838000020300000200448054915
:100ED00000684968044AC1F3C221515CC8407047A8
:100EE0003800002000100240B41F00080E4A51686C
:100EF0000E4801F00C03042B11D0082B0FD10C4825
:100F0000C1F38343C903C05C0AD5D16A084A01F022
:100F10000F011032515C054A5043B0FBF1F07047AD
:100F200004494843704700000010024000127A0054
:100F3000841F000800093D002DE9F84F040070D01F
:100F40002078C04DC00749D06868C0F381000128EF
:100F500007D06868C0F38100022809D16868C0031F
:100F600006D52868800339D560680028E7D035E0C9
:100F70006068B0F5803F0BD010B1B0F5A02F11D054
:100F8000286820F480302860286820F4802002E05F
:100F9000286840F480302860606890B1FFF7DEFD7B
:100FA00006460AE0286840F480202860F0E700BF89
:100FB000FFF7D4FD801B642873D828688003F7D519
:100FC0000CE0FFF7CBFD064605E000BFFFF7C6FDCE
:100FD000801B6428F0D828688003F7D420789A4EC4
:100FE00080074FF001094FF0000839D5686810F00C
:100FF0000C0F07D06868C0F38100022809D1686827
:10100000C00306D42868800714D52069012808D1B8
:1010100010E02069B0B1C6F80090FFF79FFD0746C9
:1010200005E00AE1FFF79AFDC01B0228C4D8286832
:101030008007F7D52868616920F0F80040EAC10010
:1010400028600DE0C6F80080FFF788FD074604E041
:10105000FFF784FDC01B022823D828688007F7D437
:10106000207800072CD57948A169D9B1C0F8009043
:10107000FFF774FD074604E0FFF770FDC01B022870
:101080000FD8686A8007F7D571484FF4FA510068A5
:10109000B0FBF1F0009000BF0098411E0091FAD221
:1010A0000EE080E0C0F80080FFF758FD074604E03E
:1010B000FFF754FDC01B022875D8686A8007F7D473
:1010C0002078400760D5E8690027C00008D4E869A7
:1010D00040F08050E861E869012700F080500090FE
:1010E0005C480168C90513D40168834641F48071E6
:1010F0000160FFF733FD824606E000BFFFF72EFDDB
:10110000A0EB0A0064284ED8DBF80000C005F5D536
:10111000E06801280AD008B1052813D0286A20F019
:1011200001002862286A20F0040002E0286A40F0EA
:1011300001002862E06841F2883B98B1FFF70EFD9C
:1011400082460BE0286A40F004002862EEE700BF08
:10115000FFF704FDA0EB0A0159455AD8286A800719
:10116000F6D50CE0FFF7FAFC824605E0FFF7F6FC47
:10117000A0EB0A0159454CD8286A8007F6D41FB164
:10118000E86920F08050E861E06988B36968C1F3DC
:101190008101022944D00228C6F8608004D0FFF7FC
:1011A000DDFC044638E034E0FFF7D8FC074604E0F5
:1011B000FFF7D4FCC01B02282BD828688001F7D485
:1011C000206AB0F5803F05D1E86AA16820F00F00E1
:1011D0000843E862D4E908010843696821F47411FE
:1011E00008436860C6F86090FFF7B8FC044606E064
:1011F00025E000BFFFF7B2FC001B022809D82868D1
:101200008001F7D51BE000BFFFF7A8FC001B0228F8
:1012100002D90320BDE8F88F28688001F4D40EE0DD
:101220000128F7D06868226A00F48031914204D125
:10123000616A00F47010884201D00120EAE70020C2
:10124000E8E70000001002400000424280044242F1
:10125000380000200070004010B5401EB0F1807FC3
:1012600001D3012010BD4FF0E02460610F21601711
:1012700000F0E0FD0020A06107202061002010BDEB
:101280007047704770B590F83C20012A29D001249E
:1012900080F83C40022280F83D2003685A689D682F
:1012A00022F070060A6832435A600F4B02689A4275
:1012B0000BD0B2F1804F08D00C4B9A4205D00C4BAA
:1012C0009A4202D00B4B9A4204D1496825F0800320
:1012D0001943916080F83D40002180F83C10084699
:1012E00070BD022070BD0000002C014000040040D1
:1012F000000800400040014010B5040003D094F8FD
:101300003D0010B107E0012010BD002084F83C0032
:10131000204600F01FF8022084F83D00211D2068BF
:1013200000F01CFC012084F8460084F83E0084F89C
:101330003F0084F8400084F8410084F8420084F8BB
:10134000430084F8440084F8450084F83D00002000
:1013500010BD000008B50068B0F1804F12D10A48F6
:10136000C16941F00101C161C069002200F00100C2
:10137000009011461C20FFF767FCBDE808401C20C8
:10138000FFF755BC08BD00000010024070B50446D0
:1013900090F83C000025012817D0012684F83C6015
:1013A000022084F83D002068826822F0770222F44F
:1013B0007F4282600868502838D00DDC20284FD04A
:1013C00005DC90B3102811D14AE0022070BD30280E
:1013D00046D040280AD13BE060282FD070280DD09D
:1013E000B0F5805F03D0B0F5005F12D0012584F81E
:1013F0003D60002084F83C00284670BDCB68D1E9F0
:101400000121206800F0F6FB2068816841F0770137
:1014100009E0CB68D1E90121206800F0EBFB2068EE
:10142000816841F480418160E1E719E0CA68496858
:10143000206800F0DBFC5021206806E0CA6849689B
:10144000206800F0E4FC6021206800F0DDFBCEE7BE
:10145000CA684968206800F0C9FC40212068F4E7A8
:10146000226801461046F0E7704770B504460068F0
:1014700001694FF00005C943890715D4C168C94304
:10148000890711D4E91E0161012020772068806955
:101490008007204602D0FFF7E7FF04E000F0DEF807
:1014A000204600F08DF9257720680169C943490776
:1014B00017D4C168C943490713D46FF0040101610F
:1014C000022020772068806910F4407F204602D0F7
:1014D000FFF7CAFF04E000F0C1F8204600F070F901
:1014E000257720680169C943090716D4C168C94333
:1014F000090712D46FF008010161042020772068E9
:10150000C0698007204602D0FFF7AEFF04E000F07C
:10151000A5F8204600F054F9257720680169C943F1
:10152000C90617D4C168C943C90613D46FF01001A6
:101530000161082020772068C06910F4407F2046B0
:1015400002D0FFF791FF04E000F088F8204600F099
:1015500037F9257720680169C943C90708D1C168EF
:10156000C943C90704D1891E0161204600F02AF948
:1015700020680169C943090609D4C168C94309063D
:1015800005D46FF0800101612046FFF779FE2068E5
:101590000169C943490609D4C168C943490605D44C
:1015A0006FF040010161204600F064F92068016994
:1015B000C94389060BD4C168C943890607D46FF0B3
:1015C000200101612046BDE87040FFF75ABE70BDA2
:1015D00030B585B00021009101910291039104681A
:1015E0001A49022203231A48B4F1804F13D0194D2F
:1015F000AC420ED18C6944F004048C618969039378
:1016000001F0040104914021CDE900126946FFF781
:10161000AFF905B030BD8C6944F004048C61896970
:10162000039301F0040104914FF40041CDE900124D
:101630006946FFF79DF90848416821F4407141F07F
:10164000E06141F480714160E3E700000010024076
:10165000000801400004004000000140704770B5E0
:10166000044690F83C0000260D4601280FD00120CA
:1016700084F83C006AB1042A1DD0082A2FD00C2A15
:101680003FD00126002084F83C00304670BD022087
:1016900070BD206800F0C0FA2068816941F008013F
:1016A00081612068816921F004018161206881697C
:1016B0002A69114311E0206800F0EEFA2068816980
:1016C00041F4006181612068816921F48061816158
:1016D000206881692A6941EA02218161D2E7206894
:1016E00000F016FB2068C16941F00801C161206863
:1016F000C16921F00401C1612068C1692A691143EF
:1017000011E0206800F040FB2068C16941F40061ED
:10171000C1612068C16921F48061C1612068C1692B
:101720002A6941EA0221C161ACE710B5040003D087
:1017300094F83D0010B107E0012010BD002084F8AE
:101740003C00204600F01EF8022084F83D00211DD8
:10175000206800F003FA012084F8460084F83E0077
:1017600084F83F0084F8400084F8410084F8420087
:1017700084F8430084F8440084F8450084F83D0070
:10178000002010BD08B500680B49884212D10B48F3
:10179000C16941F00201C161C069002200F002008C
:1017A000009011461D20FFF74FFABDE808401D20AC
:1017B000FFF73DBA08BD00000004004000100240E1
:1017C000704700002DE9F041284905468B6A98686A
:1017D000CA880C891040A04202D14869401C486167
:1017E000D1E906674FF08040BE4204D3066A46F056
:1017F0000106066201E0761C8E614F694E6AB742AF
:101800002DD39B681340A34203D0086A304448623A
:1018100025E000224A618A610A6A4A62C16821F0B1
:101820000101C160124C206840F0010020600620D8
:10183000FFF7FDF9206840F0020020600720FFF765
:10184000F6F9206840F0040020600820FFF7EFF967
:10185000206840F0080020600920FFF7E8F92968B7
:101860006FF01C000861BDE8F0810000000000205E
:10187000000401407047FEE73EB500241148009483
:10188000019402940E49846001600125057304757A
:1018900005614FF460214460C161FEF777FE08B135
:1018A000FEF788FD0520CDE900056946029405484C
:1018B000FEF7EEFD002801D0FEF77CFD3EBD0000E6
:1018C000002401403C0000202DE9F04186B00025B5
:1018D00036480095019502950395816941F0100104
:1018E0008161816901F010010491816941F0200159
:1018F0008161816901F020010491816941F0040155
:1019000081618069DFF8A88000F004000490002263
:101910004FF470614046FFF71BF926480124CDE9DA
:101920000040254F0226694602963846FFF720F808
:101930000E2000902148CDE9010469463846FFF7A2
:1019400017F84FF440708DE8710069464046FFF784
:101950000FF84FF440608DE8310003200390694692
:101960004046FFF705F8002211460620FFF76CF904
:101970000620FFF75CF9002211460720FFF764F903
:101980000720FFF754F9002211460820FFF75CF901
:101990000820FFF74CF9002211460920FFF754F9FF
:1019A0000920FFF744F906B0BDE8F08100100240BD
:1019B000001001400000111000080140000021103B
:1019C00010B58EB000240794089409940A940B94DF
:1019D0001C2168460C94FEF711FC1F484FF0804113
:1019E000C0E9001443F67F61C0E9024104618461EB
:1019F000FFF782FC08B1FEF7DDFC4FF48050079042
:101A000007A91548FFF7C2FC08B1FEF7D3FC12483E
:101A1000FFF78BFE08B1FEF7CDFC0B940BA90E4827
:101A20000C94FFF72FFC08B1FEF7C4FC6020009077
:101A300041F63F70CDE9010404200490002269467C
:101A40000548FFF70CFE08B1FEF7B4FC0248FFF7AB
:101A5000BFFD0EB010BD00006C00002010B58AB0B4
:101A6000002407941C2168460894FEF7C7FB17481A
:101A70001549C0E9001443F67F61C0E902410461E1
:101A80008461FFF752FE08B1FEF794FC079407A9A2
:101A90000E480894FFF7F6FB08B1FEF78BFC6020B8
:101AA000009041F63F70CDE901040420049000222B
:101AB00069460648FFF7D3FD08B1FEF77BFC0348F3
:101AC000FFF786FD0AB010BD00040040B4000020FE
:101AD000FEE7FEE770477047FFF746B830B593B0B2
:101AE00028216846FEF78AFB14210AA8FEF786FB28
:101AF000002401200F9402250490009510201194D9
:101B00000590109407946846FFF716FA08B172B66C
:101B1000FEE70F20CDE90A040C940D9400210AA8D9
:101B20000E94FFF75FF908B172B6FEE70FA80F95A4
:101B30001194FFF7E9F8002801D072B6FEE713B060
:101B400030BD70470148FFF790BC00006C000020DA
:101B50000148FFF78ABC0000B4000020F0B502681D
:101B60001E4B1F4C1F4D4FF0804E984205D07045C4
:101B700003D0A04201D0A84203D122F070064A68E7
:101B80003243194E194FDFF868C098420BD07045A8
:101B900009D0A04207D0A84205D0B04203D0B84235
:101BA00001D0604503D122F44074CA6822434C69D5
:101BB00022F08002224302608A68C2620A6882625E
:101BC000984205D0B04203D0B84201D0604501D15F
:101BD0000969016301214161F0BD0000002C014051
:101BE0000004004000080040004001400044014063
:101BF0000048014010B5846842EA032224F47F447F
:101C00000A432243826010BD826822F070020A43B8
:101C100042F0070181607047F0B5026A036A23F061
:101C20000103036243688469184E24F073050C684D
:101C3000174F2C4322F002058A68DFF858C02A4368
:101C4000114DA84205D0B04203D0B84201D0604542
:101C500006D122F0080ECA6842EA0E0222F00402FF
:101C6000A84205D0B04203D0B84201D0604505D1AA
:101C70004D6923F440731D438B692B43436084619A
:101C8000496841630262F0BD002C01400040014000
:101C9000004401400048014030B5026A036A23F065
:101CA00010030362436884690D6824F4E64444EA3F
:101CB00005248D6822F0200242EA0512104DA84248
:101CC00007D1CD6822F0800242EA051222F04002DC
:101CD00008E00C4DA84205D00B4DA84202D00B4D98
:101CE000A84207D14D6923F4406343EA85038D6917
:101CF00043EA85034360846149688163026230BDC1
:101D0000002C0140004001400044014000480140D7
:101D100030B5036A026A22F4807202624268C469C2
:101D200023F4007324F073050C682C438D6843EA98
:101D30000523114DA84207D1CD6823F4006343EA7F
:101D4000052323F4806308E00C4DA84205D00C4D18
:101D5000A84202D00B4DA84207D14D6922F440524F
:101D600042EA05128D6942EA05124260C46149687F
:101D7000C163036230BD0000002C014000400140FF
:101D8000004401400048014030B5046A026A22F470
:101D9000805202624268C3690D6823F4E64343EA55
:101DA00005238D6824F4005444EA05340B4DA84201
:101DB00008D00B4DA84205D00A4DA84202D00A4DCA
:101DC000A84204D14D6922F4804242EA8512426061
:101DD000C36149680164046230BD0000002C014009
:101DE00000400140004401400048014010B5036A32
:101DF000046A24F001040462846924F0F00444EAD3
:101E0000021423F00A020A438461026210BD10B575
:101E1000036A046A24F010040462846923F0A003B6
:101E200024F4704444EA023243EA011182610162FF
:101E300010BDFEE70907090E002804DB00F1E020D1
:101E400080F80014704700F00F0000F1E02080F8E7
:101E5000141D7047FEF790FEFFF740FEFFF734FDBC
:101E6000FFF7AEFDFFF708FDFFF7F8FD4FF08046E6
:101E7000306820F0020030603D48C16841F4807154
:101E8000C160C16821F40071C1603A4C002727701D
:101E9000C16841F40061C1604FF47A784046FEF7B2
:101EA00091FC354D286840F0010028600620FEF7BF
:101EB000BEFE286840F0020028600720FEF7B7FE4B
:101EC000286840F0040028600820FEF7B0FE28686B
:101ED00040F0080028600920FEF7A9FE4046FEF702
:101EE00071FC2648FEF753FC2448FEF765FA2348A8
:101EF000FEF706FC2868000736D0E068142826D3D1
:101F000020691421B0FBF1F080B2A080012101EB27
:101F1000D000C821B1FBF0F16080891CE1614FF471
:101F2000C871B1FBF0F1091D2162616200EB800014
:101F3000FA2101EB0011F1627D2101EBC000706319
:101F4000706940F0010070612761E7600CE00C49A6
:101F50000A6842F480020A6009494431096822692A
:101F6000401C1144C4E903010A20FEF72BFCC1E721
:101F70000010014000000020000401403C0000204F
:101F80000824014002030405060708090A0B0C0D8A
:101F90000E0F10100102030405060708090A0B0CB6
:101FA0000D0E0F10000000000000000001020304ED
:101FB000060708090000000001020304DC1F0008F6
:101FC000000000203C0000005C0100081820000810
:101FD0003C000020240700007801000800002800D1
:101FE00000000100000000000000000000000000F0
:101FF00000000000000000000A00000014000000C3
:102000001400000000080140010000001000000062
:08201000000000000024F400B0
:0400000508000121CD
:00000001FF
