:020000040800F2
:1000000000500020DD0600084105000843050008F7
:1000100045050008470500084905000800000000E4
:100020000000000000000000000000004B05000878
:100030004D050008000000004F05000851050008AC
:1000400025070008250700082507000855050008B2
:1000500025070008250700082507000825070008D0
:1000600025070008250700082507000825070008C0
:1000700025070008250700082507000825070008B0
:1000800025070008250700082507000825070008A0
:100090002507000825070008250700082507000890
:1000A0002507000825070008250700082507000880
:1000B0002507000825070008610500082507000836
:1000C0002507000825070008250700082507000860
:1000D0002507000825070008250700082507000850
:1000E0002507000825070008250700080000000074
:1000F0000000000000000000000000000000000000
:0C01000000000000000000005FF808F1A3
:10010C0010B5054C237833B9044B13B10448AFF345
:10011C0000800123237010BD0C00002000000000A3
:10012C00D81B000808B5034B1BB103490348AFF3B8
:10013C00008008BD0000000010000020D81B000843
:10014C00102210B588B00DEB0200002101F012FD59
:10015C001C4B1D4C9A69204642F010029A619A6918
:10016C00FE2102F010020092009A9A6942F02002DD
:10017C009A619A6902F020020192019A9A6942F0FE
:10018C0004029A619A6902F004020292029A9A6934
:10019C0042F008029A619B69002203F00803039362
:1001AC00039B00F053FCFE2201230021CDE9042324
:1001BC0003232046CDE9061304A900F06DFB08B01B
:1001CC0010BD00BF0010024000080140092809D8EA
:1001DC00DFE800F02105090C0F1215181B1E0F4B40
:1001EC000F4A1A6170470D4B0E4AFAE70B4B0E4A39
:1001FC00F7E70A4B0D4AF4E7084B0D4AF1E7074BBA
:10020C000C4AEEE7054B0C4AEBE7FE22034BE8E702
:10021C00024B0A4AE5E7014B094AE2E700080140B4
:10022C000C00F200B60048009E006000CC003200CA
:10023C00DA002400FA0004000E00F000DE002000BA
:10024C007E0080000138032822D8DFE800F0020B82
:10025C00151C104B1A680A23B2FBF3F003FB102099
:10026C00FFF7B4BF0A220B4B1B68B3FBF2F3B3FBD3
:10027C00F2F002FB1030F3E76422064B1B68B3FB71
:10028C00F2F30A22F3E7034B4FF47A721B68F6E79A
:10029C00704700BF2C00002030B595B024220021FF
:1002AC000BA801F067FC1422102500210DEB0200B5
:1002BC0001F060FC00212A4601A801F05BFC01243E
:1002CC000A230AA8CDE90E450A93109400F0CAFB44
:1002DC00014608B172B6FEE70F23CDE90700CDE960
:1002EC000530099005A800F07FFD08B172B6FEE755
:1002FC004FF4007301A80194029300F021FE08B1A1
:10030C0072B6FEE715B030BD08B500F02BFAFFF75A
:10031C00C3FFFFF715FF00F08DF800F06BF900211B
:10032C00094801F091FB0421074801F08DFB0821DD
:10033C00054801F089FB0C21034801F085FB0120E5
:10034C0000F034FAFBE700BF4400002038B5057F0D
:10035C000446012D0DD1002101F025F92E4B80B260
:10036C00188000283CD12846FFF76CFF192223681F
:10037C005A63257F022D0ED10421204601F013F97A
:10038C00254B80B21F28188031D12846FFF75AFF21
:10039C00382223689A63237F042B0ED10821204630
:1003AC0001F001F91C4B80B23F28188026D10320A4
:1003BC00FFF748FF58222368DA63237F082B0ED1FE
:1003CC000C21204601F0EFF8134B80B25F28188007
:1003DC001BD10420FFF736FF782223681A6438BD3E
:1003EC004FF47E020D4B1A6100222368C0E74FF4D4
:1003FC007E020A4B1A611F222368CBE74FF47E0260
:10040C00064B1A613F222368D6E74FF47E02034B5A
:10041C001A615F222368E1E72800002000080140F0
:10042C00024A136801331360704700BF2C00002090
:10043C0072B6FEE713B54FF0FF3300241448154A8B
:10044C00ADF80040C0E900238DF8024001948460AF
:10045C0000F0BAFF08B1FFF7EBFF012269460C4828
:10046C00ADF800408DF8024000F0EBFE08B1FFF74C
:10047C00DFFF094B0122064801A9019300F032FF6E
:10048C0008B1FFF7D5FF024800F0E6FF02B010BD3F
:10049C0030000020002800400101010007B5114B7D
:1004AC0002689A421AD100F0D7FA0F4B0320DA698E
:1004BC0042F00062DA610122DB6903F00063019310
:1004CC00019B0A4BC3F83C240022114600F092F920
:1004DC00032003B05DF804EB00F0BCB903B05DF889
:1004EC0004FB00BF00280040001002400000424204
:1004FC000E4B82B09A6942F001029A619A6902F03D
:10050C0001020092009ADA6942F08052DA61DB69EA
:10051C00074A03F080530193019B536823F0E06377
:10052C0043F00073536002B0704700BF00100240EC
:10053C0000000140FEE7FEE7FEE7FEE7FEE770473E
:10054C007047704700F020B9014800F099BF00BF18
:10055C0030000020014801F040B800BF44000020EA
:10056C007047000007B50E4B02689A4215D103F58F
:10057C000233DA69012142F00402DA61DB690022FC
:10058C0003F0040301931E20019B00F033F91E209D
:10059C0003B05DF804EB00F05DB903B05DF804FB4B
:1005AC000008004010B5044686B01022002102A8B5
:1005BC0001F0E0FA22680D4B9A4215D103F5023393
:1005CC009A690B4842F008029A619B694FF4707269
:1005DC0003F008030193019B0223CDE902230323BB
:1005EC0002A9059300F058F906B010BD00080040B0
:1005FC00000C014010B58EB01022002103A801F0B0
:10060C00B9FA00241C2221460DEB0200CDE901446D
:10061C0001F0B0FA40F2FF732B482C4A8460C0E919
:10062C0000237F238461C0E9033401F0B1F808B1E1
:10063C00FFF7FEFE4FF48053234803A9039301F008
:10064C005BF908B1FFF7F4FE1F4801F0CDF808B1D3
:10065C00FFF7EEFE00241C4801A9CDE9014401F08E
:10066C0059FA08B1FFF7E4FE30230022164807A917
:10067C00CDE9073409940B9401F00EF908B1FFF79A
:10068C00D7FE1F230422104807A9089301F004F990
:10069C0008B1FFF7CDFE3F2308220B4807A90893AA
:1006AC0001F0FAF808B1FFF7C3FE5F230C220648ED
:1006BC0007A9089301F0F0F808B1FFF7B9FE02485A
:1006CC00FFF770FF0EB010BD440000200008004082
:1006DC00FFF746FF0B480C490C4A002302E0D458A4
:1006EC00C4500433C4188C42F9D3094A094C002372
:1006FC0001E013600432A242FBD301F043FAFFF78E
:10070C0003FE7047000000200C000020341C000881
:10071C000C00002090000020FEE7000038B50E4BC6
:10072C0005461A784FF47A73B3FBF2F30B4A106850
:10073C00B0FBF3F000F09CF8044658B90F2D09D823
:10074C00024629464FF0FF3000F054F82046044B87
:10075C001D6038BD0120FCE70400002000000020D3
:10076C0008000020074A08B51368032043F0100363
:10077C00136000F02DF80F20FFF7D0FFFFF7B8FE45
:10078C00002008BD00200240034A044B11681B786E
:10079C000B441360704700BF8C0000200400002045
:1007AC00014B1868704700BF8C00002038B5044618
:1007BC00FFF7F6FF0546631C1EBF044B1B78E418BD
:1007CC00FFF7EEFF431BA342FAD338BD0400002011
:1007DC0007490302CA6803F4E06322F4E0621204DE
:1007EC00120C134343F0BF6343F40033CB607047E8
:1007FC0000ED00E0154B30B5DC68C4F30224C4F105
:10080C000703251D042B28BF0423062D4FF0FF35AD
:10081C0094BF0024033C05FA03F321EA0303A5402B
:10082C0022EA0502A340002843EA0203ACBF00F110
:10083C006040074A4FEA0313DBB2ABBF00F56140DF
:10084C0000F00F0080F80033135430BD00ED00E0D1
:10085C0014ED00E0002807DB01234109034A00F0F6
:10086C001F00834042F82130704700BF00E100E0D8
:10087C000138B0F1807F0BD24FF0E023F021054A14
:10088C00586182F823100020072298611A61704782
:10089C000120704700ED00E02DE9F74F00221646CD
:1008AC00644F654BDFF894C1DFF894E10D6835FABD
:1008BC0006F402D103B0BDE8F08F4FF0010808FA3E
:1008CC0006F805EA080438EA05057AD14D68032DC7
:1008DC0007D8013D022D00F28780DFE805F0959ADC
:1008EC00A000122D00F098806DD8112D00F08E8094
:1008FC00FF2C98BF82464FF00F0988BF00F1040A05
:10090C004FEA8605DAF8008088BF203D09FA05FB1E
:10091C0028EA0B0802FA05F548EA0505CAF8005062
:10092C00D1F804A01AF0805F4BD0BD6926F0030803
:10093C0045F00105BD61BD6908F1804805F0010570
:10094C00019508F5803806F0030B019D4FEA8B0BDF
:10095C00D8F8085009FA0BF925EA0909394DA842CB
:10096C0061D005F58065A8425FD005F58065A84289
:10097C005DD005F58065A8420CBF0325042505FA5A
:10098C000BF545EA0905C8F808509D681AF4801F54
:10099C0014BF2543A5439D60DD681AF4001F14BFE6
:1009AC002543A543DD605D681AF4003F14BF254361
:1009BC00A5435D601D681AF4803F14BF2543A54311
:1009CC001D60013672E7DFF880904D450CD017D8CA
:1009DC00A9F580194D4507D009F570294D4503D06F
:1009EC00A9F580194D4583D18A68D2B1012A08BF77
:1009FC00C0F810804FF0080218BFC0F8148077E7D9
:100A0C006545F1D07545EEE7CA6871E7CA680432EE
:100A1C006EE7CA6808326BE7CA680C3268E70022D6
:100A2C0066E7042264E70025A9E70125A7E702256C
:100A3C00A5E700BF00100240000401400000311087
:100A4C000000321000080140000022100AB10161C0
:100A5C0070470904FBE700000122014B1A62704742
:100A6C0000000E422DE9F341054638B30368DB075D
:100A7C0010D42B689F075ED42B68190700F1958062
:100A8C002B685A0700F1C180E869002840F02C81DE
:100A9C00002029E0904C636803F00C03042B07D072
:100AAC00636803F00C03082B0AD16368DE0307D5D7
:100ABC0023689C03DDD56B68002BDAD1012013E091
:100ACC006B68B3F5803F12D1236843F48033236005
:100ADC00FFF766FE064623689803CAD4FFF760FE4C
:100AEC00801B6428F7D9032002B0BDE8F0819BB9C4
:100AFC00236823F480332360236823F4802323604A
:100B0C00FFF74EFE064623689903B2D5FFF748FE61
:100B1C00801B6428F7D9E6E7B3F5A02F236803D12F
:100B2C0043F480232360CFE723F4803323602368CE
:100B3C0023F48023CBE7684C636813F00C0F07D0C9
:100B4C00636803F00C03082B10D16368DA030DD42F
:100B5C0023689B0702D52B69012BAFD123686A69E7
:100B6C0023F0F80343EAC203236085E72A695B4B51
:100B7C006AB101221A60FFF713FE064623689F072D
:100B8C00ECD4FFF70DFE801B0228F7D9ABE71A60F7
:100B9C00FFF706FE0646236898077FF56DAFFFF753
:100BAC00FFFD801B0228F6D99DE7AA694A4E4B4BE4
:100BBC00E2B10122C3F88024FFF7F2FD0446736A08
:100BCC009B070DD54FF4FA52454B1B68B3FBF2F360
:100BDC00019300BF019B5A1E0192002BF9D14FE7E4
:100BEC00FFF7DEFD001B0228E9D97CE7C3F880245F
:100BFC00FFF7D6FD0446736A9F077FF541AFFFF7F9
:100C0C00CFFD001B0228F6D96DE7334CE369D80001
:100C1C0024D40127E36943F08053E361E36903F0D3
:100C2C0080530093009B2F4E3368D90518D5EB6881
:100C3C00012B26D1236A43F001032362FFF7B0FD99
:100C4C0041F288380646236A9B073FD5002F3FF4B4
:100C5C001BAFE36923F08053E36115E70027E2E75C
:100C6C00336843F480733360FFF79AFD8046336832
:100C7C00DA05DCD4FFF794FDA0EB08006428F6D964
:100C8C0031E7ABB9236A41F2883823F001032362C0
:100C9C00236A23F004032362FFF782FD0646236ACE
:100CAC009807D3D5FFF77CFD801B4045F7D91AE791
:100CBC00052B236A03D143F004032362BAE723F024
:100CCC0001032362236A23F00403B6E7FFF768FDF0
:100CDC00801B4045B7D906E7001002400000424295
:100CEC0000000020007000402A4C636803F00C03E5
:100CFC00082B3ED00022284B02281A662CD1FFF775
:100D0C004FFD06462368990120D42B6AB3F5803F2A
:100D1C0005D16268A96822F400320A436260696AEC
:100D2C0062680B4322F474121343012263601A4B62
:100D3C001A66FFF735FD054623689A013FF5A8AE04
:100D4C00FFF72EFD401B0228F6D9CCE6FFF728FD55
:100D5C00801B0228D6D9C6E6FFF722FD054623687C
:100D6C009B017FF595AEFFF71BFD401B0228F6D9C2
:100D7C00B9E601283FF4B8AE63682A6A03F48031FF
:100D8C0091427FF49BAE6A6A03F4701393423FF472
:100D9C007FAE93E600100240000042420D4A5368B9
:100DAC0003F00C01082912D10B48C3F38341DB0378
:100DBC00405C09D55368094AC3F340435043084A81
:100DCC00D35CB0FBF3F07047064B584370470348B5
:100DDC00704700BF00100240081C000800127A0087
:100DEC00181C000800093D002DE9F0410D46044691
:100DFC0010B90120BDE8F081444A136803F00703E1
:100E0C008B4228D321688E0730D4CA0743D43F4A7B
:100E1C00136803F00703AB4265D822683C4D12F00F
:100E2C00040F6CD1130706D56B68226923F4605349
:100E3C0043EAC2036B60FFF7B1FF6B68354AC3F33B
:100E4C000313D35CD840344B1860344B1868FFF74D
:100E5C0065FC0020CEE7136823F007030B431360F7
:100E6C00136803F007038B42C3D1CBE7284B11F077
:100E7C00040F1EBF5A6842F4E0625A60080742BF72
:100E8C005A6842F460525A605A68A06822F0F00224
:100E9C0002435A60B9E762681D4E012A33681AD1C1
:100EAC0013F4003FA5D0736841F2883823F0030394
:100EBC0013437360FFF774FC07467368626803F0B2
:100ECC000C03B3EB820FA2D0FFF76AFCC01B4045AA
:100EDC00F3D903208EE7022A02D113F0007FE1E759
:100EEC0013F0020FDEE7136823F007032B431360A4
:100EFC00136803F00703AB427FF47BAF8DE76B689D
:100F0C00E16823F4E0630B436B608BE70020024045
:100F1C0000100240F01B0008000000200800002018
:100F2C00044B054A5B68C3F3C223D35C034A1068C5
:100F3C00D840704700100240001C00080000002040
:100F4C0003682DE9F341D907054621D5364CE369F1
:100F5C00DA0033D40126E36943F08053E361E3699B
:100F6C0003F080530193019B304F3B68DB0527D581
:100F7C00236A6A6813F4407336D1236A6A6823F4CF
:100F8C004073134323621EB1E36923F08053E36182
:100F9C002868830706D52449AB684A6822F4404286
:100FAC001A434A6010F010001BD01F4AE9685368BE
:100FBC00002023F480030B43536012E00026D3E798
:100FCC003B6843F480733B60FFF7EAFB80463B6869
:100FDC00D805CDD4FFF7E4FBA0EB08006428F6D9C4
:100FEC00032002B0BDE8F08102F440729A42C4D0F2
:100FFC0001200F4A236AC2F84004002023F44071F8
:10100C00C2F840042162D907B7D5FFF7C9FB41F2FA
:10101C0088380746236A9A07AFD4FFF7C1FBC01B79
:10102C004045F7D9DCE700BF0010024000700040DB
:10103C0000004242022808B544D0102803D00128F1
:10104C0022D0002034E0254B5A68186810F08070CC
:10105C002ED0C2F383412248D20348BF5A68405C69
:10106C0041BF2049C2F34042895C1F4A5B684CBFB8
:10107C00B2FBF1F21D4A5B0202FB00F018D4032311
:10108C004000B0FBF3F013E040F20231134A136A54
:10109C001940B1F5817F1ED003F44073B3F5007F86
:1010AC0007D149F64043506A10F0020018BF1846A9
:1010BC0008BDB3F5407FC4D110684FF2244310F43F
:1010CC000030F3E7FFF72CFF044B5B68C3F381336D
:1010DC0001335B00D5E74FF40040E9E70010024014
:1010EC001A1C00082A1C000800127A0000093D0096
:1010FC00036830B59A69D869996995B28CB2A542E2
:10110C0017BFD86980B280B240EA014008BF40EAFC
:10111C00024030BD0368186A5B6A9BB243EA004028
:10112C0070470A22030900F00F0002FB0300C0B253
:10113C00704730B5172509234D430229B5FBF3F54C
:10114C0000F5FA6417D800F2CF73101D4FF4C87273
:10115C00B3FBF2F22044284400EB930010446422C9
:10116C00B3FBF2F3C01A0723B0FBF3F3C3EBC303D7
:10117C00C01AC0B230BD4FF4C873B4FBF3F3901C6B
:10118C002044284400EB940018446423B4FBF3F48B
:10119C00001BE8E738B50446FFF702FB0546236859
:1011AC005A68920605D500205A6842F010025A601F
:1011BC0038BDFFF7F5FA401BB0F57A7FEFD9032065
:1011CC00F6E7026838B55368044623F01003536001
:1011DC00FFF7E6FA054623685B689B0601D50020FD
:1011EC0038BDFFF7DDFA401BB0F57A7FF3D9032049
:1011FC00F6E738B505460C46FFF7CCFF58B92B6817
:10120C00220CA4B29A612846DC61FFF7DAFF0038A1
:10121C0018BF012038BD0120FCE738B505460C4647
:10122C00FFF7B8FF58B92B68220CA4B21A622846F3
:10123C005C62FFF7C6FF003818BF012038BD0120E3
:10124C00FCE7F8B50446E0B1D9B1037C0225012BCB
:10125C0045D001234574037408784E788F7892B981
:10126C003C235E434FF4616303FB00663E4431460E
:10127C002046FFF7BEFF0546B8B104236374002374
:10128C00237401252BE0FFF74CFF05463046FFF792
:10129C0048FF3C2303FB00F14FF46163384603FB2A
:1012AC000511FFF73EFF4618E1E722682046536818
:1012BC0023F005035360FFF72DFF86420BD900F591
:1012CC00A83101F5C0712046FFF7A7FF18B1042320
:1012DC0025746374D5E701236374002323742846B3
:1012EC00F8BD000070B50D46044648B341B3037C0D
:1012FC000220012B47D0012360742374C8780ABBE9
:10130C00E0734B7863738A78617BE07BA273FFF7A1
:10131C0010FF207328702046FFF7EAFE1A4B984204
:10132C002DD91A4DB0FBF5F205FB120520462946C6
:10133C00FFF75FFF064688B1042363740023237410
:10134C00012020E0FFF7EDFEE0734878FFF7E9FE9F
:10135C0060738878FFF7E5FE0246D5E72046FFF775
:10136C00D9FE85420BD900F5A83101F5C071204694
:10137C00FFF753FF18B1042326746374E0E70123CD
:10138C0000206374207470BD8F5F010080510100D8
:10139C0038B50446A8B10268536823F008035360BB
:1013AC00FFF7FEF9054623685B681B0701D5002093
:1013BC0038BDFFF7F5F9401BB0F57A7FF3D9032060
:1013CC00F6E70120F4E7000010B5044670B1437C49
:1013DC0003F0FF0213B90274FFF760F802232046F2
:1013EC006374FFF7D5FF18B10423637401202FE059
:1013FC002046FFF7CFFE0028F6D12268A16853687B
:10140C0023F007035360134A19B1136B23F0010344
:10141C001363D36A23F460730B43D3626068431C79
:10142C0005D10120FFF706FE0028DDD00138236826
:10143C00C0F3034280B29A60D8602046FFF7C1FE29
:10144C00012310B104226274D0E76373E3816374E7
:10145C0010BD00BF006C0040034670B1027C02203E
:10146C00012A0BD0196858740A68002042F0010256
:10147C000A60012218745A74704701207047704733
:10148C00036810B51A680446D10712D55A68D207FA
:10149C000FD55B685B070DD5FFF7F1FF6FF004020A
:1014AC0023685A60042322686374536823F0010391
:1014BC00536010BDFEF7B4FF0123F4E7036A026A20
:1014CC0070B522F001020262446882690D6822F054
:1014DC0073022A438D6823F002032B430A4DA84262
:1014EC000BD1CD6823F008032B4324F44074D1E9CD
:1014FC000556354323F004032C43446082614A684B
:10150C004263036270BD00BF002C0140036A026A93
:10151C0070B522F4807202624468C2690D6822F0D0
:10152C0073022A438D6823F4007343EA05230B4DA1
:10153C00A8420DD1CD6823F4006343EA052324F4BB
:10154C004054D1E90556354323F4806344EA05142D
:10155C004460C2614A68C263036270BD002C0140E2
:10156C00036A026A30B522F4805202624468C2698E
:10157C000D6822F4E64242EA05228D6823F40053FA
:10158C0043EA0533064DA84202BF4D6924F480445A
:10159C0044EA85144460C2614A680264036230BD47
:1015AC00002C01407047082910D004D841B10429FF
:1015BC0009D0002070470C29FBD10368186C7047C8
:1015CC000368586B70470368986B70470368D86B57
:1015DC0070477047704770477047036810B51A69B9
:1015EC00044691070ED5DA6892070BD56FF002020C
:1015FC001A61012202779B699B0777D0FFF7EAFFFC
:10160C000023237723681A69500710D5DA6851072D
:10161C000DD56FF004021A61022222779B692046D5
:10162C0013F4407F68D0FFF7D5FF0023237723689E
:10163C001A6912070FD5DA6810070CD56FF008027B
:10164C001A6104222277DB69204699075AD0FFF7EA
:10165C00C1FF0023237723681A69D20610D5DA68F4
:10166C00D0060DD56FF010021A6108222277DB69C3
:10167C00204613F4407F4BD0FFF7ACFF00232377B9
:10168C0023681A69D10708D5DA68D20705D56FF037
:10169C00010220461A61FFF79CFF23681A691006A5
:1016AC0008D5DA68110605D56FF0800220461A615C
:1016BC0000F05FFA23681A69520608D5DA685006FA
:1016CC0005D56FF0400220461A61FFF785FF2368AD
:1016DC001A69910622D5DA6892061FD56FF020029E
:1016EC002046BDE810401A6100F042BAFEF72EFE0B
:1016FC002046FFF770FF83E7FEF728FE2046FFF732
:10170C006AFF92E7FEF722FE2046FFF764FFA0E790
:10171C00FEF71CFE2046FFF75EFFAFE710BD000092
:10172C001A4A036890420AD0B0F1804F07D0A2F554
:10173C009432904203D002F58062904215D14A68EF
:10174C0023F070031343114A90420AD0B0F1804F3A
:10175C0007D0A2F59432904203D002F580629042F9
:10176C0003D1CA6823F4407313434A6923F08003FE
:10177C00134303608B68C3620B688362034B98420C
:10178C0004BF0B690363012343617047002C0140C4
:10179C0010B5044630B390F83D3003F0FF021BB98E
:1017AC0080F83C20FEF7DEFE0223206884F83D30F2
:1017BC00211DFFF7B5FF0123002084F8463084F883
:1017CC003E3084F83F3084F8403084F8413084F85F
:1017DC00423084F8433084F8443084F8453084F83F
:1017EC003D3010BD0120FCE710B5044630B390F835
:1017FC003D3003F0FF021BB980F83C20FFF7D2FE0E
:10180C000223206884F83D30211DFFF789FF012356
:10181C00002084F8463084F83E3084F83F3084F859
:10182C00403084F8413084F8423084F8433084F8F6
:10183C00443084F8453084F83D3010BD0120FCE77D
:10184C00036A026A70B522F010020262446882696F
:10185C000D6822F4E64242EA05228D6823F020034B
:10186C0043EA05130B4DA8420DD1CD6823F080033C
:10187C0043EA051324F44064D1E90556354323F0BB
:10188C00400344EA8504446082614A6882630362CF
:10189C0070BD00BF002C014038B590F83C300546B7
:1018AC00012B1DD0082A17D007D862B1042A0FD0FB
:1018BC000120002385F83C3038BD0C2AF8D1006893
:1018CC00FFF74EFE02E00068FFF7F8FD0020F0E79E
:1018DC000068FFF7B5FFF9E70068FFF717FEF5E7BB
:1018EC000220E9E710B584680A4324F47F4442EAF5
:1018FC0003222243826010BD38B590F83C30044678
:10190C00012B4FF0020000F08E80012284F83D0084
:10191C00206884F83C20836823F47F4323F077030A
:10192C0083600B68602B4FD032D8402B64D016D814
:10193C00202B0DD00AD833F0100109D0012384F8E4
:10194C003D30002384F83C30104638BD302BF5D1A7
:10195C00826822F07002134343F0070328E0502BF7
:10196C00ECD14A68CD68016A036A21F00A0123F0C0
:10197C000103036283690A4323F0F00343EA05136E
:10198C0083610262836823F0700343F057030FE016
:10199C00B3F5805F0DD0B3F5005F0CD0702BCDD1BB
:1019AC00CB68D1E90121FFF79DFF836843F07703F2
:1019BC0083600022C2E7CB68D1E90121FFF792FFD7
:1019CC00836843F48043F3E7036A026A4D6822F0AC
:1019DC001002C9680262826923F0A00322F47042EB
:1019EC0043EA051342EA013282610362836823F001
:1019FC00700343F06703DBE74A68CD68016A036A4A
:101A0C0021F00A0123F00103036283690A4323F0E6
:101A1C00F00343EA051383610262836823F07003C9
:101A2C0043F04703C4E702468EE710B50124036A6E
:101A3C0001F01F018C4023EA04030362036A8A400D
:101A4C001A43026210BD000008B5034629B990F88C
:101A5C003E20012A30D0012008BD04290BD190F87A
:101A6C003F20012AF7D10222186883F83F20C26870
:101A7C0042F0040227E008290BD190F84020012AFB
:101A8C00E9D10222186883F84020C26842F00802AB
:101A9C0019E090F84120012AD0B2DCD10429E2D01F
:101AAC000829EED002220C2983F84120D4D11868E1
:101ABC00C26842F0100206E0022280F83E20006864
:101ACC00C26842F00202C26018680122FFF7ADFF43
:101ADC000E4B98420AD1436C43F400434364836831
:101AEC0003F00703062B0BD10020B5E7B0F1804FB4
:101AFC00F5D0074B9842F2D003F580639842EED0B4
:101B0C00036843F001030360EEE700BF002C0140C3
:101B1C000004004030B590F83C300246012B4FF0E9
:101B2C00020022D0136882F83D005C680D6824F036
:101B3C0070042C4398685C600C4CA3420AD0B3F13F
:101B4C00804F07D0A4F59434A34203D004F58064ED
:101B5C00A34204D1496820F080000143996001231D
:101B6C00002082F83D3082F83C0030BD002C014052
:101B7C007047704703460244934200D1704703F804
:101B8C00011BF9E770B500260C4D0D4C641BA4101D
:101B9C00A64209D100F01AF800260A4D0A4C641B23
:101BAC00A410A64205D170BD55F8043B98470136E8
:101BBC00EEE755F8043B98470136F2E72C1C000879
:101BCC002C1C00082C1C0008301C0008F8B500BFA9
:101BDC00F8BC08BC9E467047F8B500BFF8BC08BC02
:041BEC009E4670475A
:101BF00000000000000000000102030406070809BD
:101C0000000000000102030402030405060708099E
:101C10000A0B0C0D0E0F101001020203040506073B
:0C1C200008090A0B0C0D0E0F1010010239
:041C2C00310100087A
:041C30000D0100089A
:0C1C34000024F40001000000100000007B
:04000005080006DD0C
:00000001FF
